:100000000C94EC040C9430050C9430050C943005E1
:100010000C9430050C9430050C9430050C9430058C
:100020000C9430050C9430050C94E3210C94B5220B
:100030000C9430050C9430050C9430050C9430056C
:100040000C9430050C942E1D0C9430050C94300546
:100050000C9430050C9458180C9430050C94300511
:100060000C9430050C9430050C9430050C9430053C
:100070000C9430050C9430050C9430050C9430052C
:100080000C9430050C9430050C9430050C9430051C
:100090000C9430050C9430050C9430050C9430050C
:1000A0000C9430050C9430050C9430052B07240774
:1000B00029071C071F07220727078E0794079807A1
:1000C0009B079F07A307A707AB07B007B407B807AD
:1000D000BC07BF07C307C707CB07CF07D4078D0EE1
:1000E0008D0EBC0EBC0EF40E160F3E103E10210FEE
:1000F0003E10C80FC80F31103E103E103910D50FFA
:10010000D50FD50FD50FD50FD50FD50FD50FD50FCF
:10011000D50FD50FD50FD50FD50FD50FD50FE70FAD
:10012000F50FFC0F03100D10BE10BE10D110D11032
:10013000C710D110D110D110BE10BE10CD10D110EB
:10014000D110CD101A233C2327243C2327247E23BF
:10015000A1232724F623092429002B002944E100A8
:10016000E00000001E00140004001D4103512A009D
:100170001F001A0016001B0039002800200008008C
:1001800007000600E2002C002100150009001900FC
:10019000E3000000220017000A00054200000000F2
:1001A00031002F0000000551000064302E003000A7
:1001B000000005530000AA0023001C000B001142A0
:1001C0000000A900240018000D001000E700A8009E
:1001D00025000C000E0036000451E300260012003A
:1001E0000F0037000251E2002700130033003841AE
:1001F000035129002A002D003400E500E40000002E
:1002000001000100010001000100000001001F02C7
:10021000310001000100010001002D02380021021F
:100220000100010001002F002F0231020100010036
:1002300001003000300235020100010001002302FC
:10024000250235000000010001000100000001004E
:100250000000010001000100000001000000010099
:1002600001001E0238022E020000010001003602C9
:100270002602220201000100010037022702340297
:100280000100010001002E002D00340001000100DA
:100290000100240220020100010001000100010010
:1002A0000100010001000000010001000100010047
:1002B000010000000100FE00FD00FF000100010040
:1002C00001000100F4000100010001000100010033
:1002D000F60001000100010001000100F50001002D
:1002E0000100010001000100010001000000010007
:1002F00001000100000001000000010001000100F8
:1003000000000100000001000100FB00F2000100FC
:10031000000001000100FA00F100F40001000100FA
:1003200001005100F000F600010001000100520040
:10033000F300F500010001000100F90001000100D7
:10034000010001000100FC000100010001000000AB
:100350004400010044000100010000003A000100D7
:100360003A000100010001003B0001003B000100D8
:10037000010001003C0001003C00010001000100FF
:100380003D0001003D000100010001003E000100B0
:100390003E00010000000100440001000000440094
:1003A00000000100450001000000450000000100C0
:1003B0003F0001003F00010000000100400001007B
:1003C0004000010001000100410001004100010066
:1003D0000100010042000100420001000100010093
:1003E000430001004300010001000100450001003D
:1003F000450001000100000044000100010001006F
:10040000010000003A0001000401010001000100A8
:100410003B00010049000100010001003C0008010F
:100420004C00060E010001003D000100090F010013
:10043000010001003E000100010001000000010078
:10044000440001000000010000000100450001001F
:1004500000000100000000703F0001005000260F66
:1004600000000100400001005100270F01000100C1
:100470004100500852004B000100010042004F08AB
:100480004F004E000100010043000100340F010045
:100490000100010045000100010001000100000011
:1004A0000100010001000100010000000100010045
:1004B0000100010001000100010001000100010034
:1004C0000100010001000100010001000100010024
:1004D0000100010001000100010001000100010014
:1004E0000100010000000100010001000000010006
:1004F00000000100010001000000010000000100F7
:1005000001000100010001000000010001002400C1
:1005100021001E00270001003100250022001F00DD
:1005200036000100250226002300200037000100CC
:100530002D002E022E022800010001000100010002
:1005400001000100010000000000000000000000A8
:10055000000000000000000000000000000000009B
:10056000000000000000000000000000000000008B
:10057000000000000000000000000000000000007B
:10058000000000000000000000000000000000006B
:10059000000000000000000000000000000000005B
:1005A000000000000000000000000000000000004B
:1005B000000000000000000000000000000000003B
:1005C000000000000000000000000000000000002B
:1005D000000000000000000000000000000000001B
:1005E000000000000000000000000000000000000B
:1005F00000000000000000000000000000000000FB
:1006000000000000000000000000000000000000EA
:1006100000000000000000000000000000000000DA
:1006200000000000000000000000000000000000CA
:1006300000000000000000000000000000000000BA
:1006400000000000000000000000000000000000AA
:10065000000000000000000000000000000000009A
:10066000000000000000000000000000000000008A
:10067000000000000000000000000000000000007A
:10068000000000000000000000000000000000006A
:10069000000000000000000000000000000000005A
:1006A000000000000000000000000000000000004A
:1006B000000000000000000000000000000000003A
:1006C000000000000000000000000000000000002A
:1006D000000000000000000000000000000000001A
:1006E000000000000000000000000000000000000A
:1006F00000000000000000000000000000000000FA
:1007000000000000000000000000000000000000E9
:1007100000000000000000000000000000000000D9
:1007200000000000000000000000000000000000C9
:1007300000000000000000000000000000000000B9
:1007400001000100010001000100000001000100A2
:100750000100010001000100010001000100010091
:100760000100010001000100010001000100010081
:100770000100010001000100010001000100010071
:100780000100010000000100010001000000010063
:100790000000010001000100000001000000010054
:1007A0000100010001000100000001000100010042
:1007B0000100010001000100010001000100010031
:1007C0000100010001000100010001000100010021
:1007D0000100010001000100010001000100010011
:1007E0000100010001000000000000000000000006
:1007F000000000010204060A0F17202C3A4A5D711E
:10080000879DB3C7DAE9F5FCFFFCF5E9DAC7B39DCC
:1008100087715D4A3A2C20170F0A06040201000076
:100820000000000000000000160345007200670091
:100830006F0044006F007800200045005A0000005F
:1008400016034500720067006F0044006F007800D7
:10085000200045005A0000000403090409026D004D
:10086000040100A0FA0904000001030101000921AC
:10087000110100012240000705810308000A090454
:1008800001000103010200092111010001224D00B4
:100890000705820308000A090402000103000000A2
:1008A0000921110100012236000705830308000A0F
:1008B00009040300010300000009211101000122C5
:1008C0003900070584032000011201100100000017
:1008D00008EDFE071301000102000105010906A150
:1008E00001050719E029E715002501950875018123
:1008F00002050819012905950575019102950175F3
:100900000391010507190029F71500250195F875D0
:10091000018102C005010980A1018502168100261E
:10092000B7001A81002AB700751095018100C00533
:100930000C0901A1018503160100269C021A010081
:100940002A9C02751095018100C005010902A101D0
:100950000901A100050919012905150025019505C1
:100960007501810295017503810105010930093185
:100970001581257F95027508810609381581257F27
:10098000950175088106050C0A38021581257F95A9
:100990000175088106C0C005010906A101050719F6
:1009A000E029E7150025019508750181029501757B
:1009B0000881010508190129059505750191029520
:1009C00001750391010507190029FF150026FF0095
:1009D000950675088100C00011241FBECFEFDAE034
:1009E000DEBFCDBF04B603FE24C0809121029091EA
:1009F0002202A0912302B09124028730904BA7409D
:100A0000B04BB9F4109221021092220210922302EC
:100A10001092240214BE84B7877F84BF88E10FB68A
:100A2000F89480936000109260000FBEE0E0FFE356
:100A3000099511E0A0E0B1E0EAECFBE402C005900A
:100A40000D92A433B107D9F712E0A4E3B1E001C0DD
:100A50001D92A132B107E1F70E942D1F0C94E325EE
:100A60000C9400001092B9008AE08093B8000895B9
:100A700094EA9093BC009091BC0097FFFCCF9091BA
:100A8000B900987F983021F0903111F081E00895FD
:100A90008093BB0084E88093BC008091BC0087FFFA
:100AA000FCCF8091B900887F883111F0803471F7D4
:100AB00080E0089584E98093BC008091BC0084FDAF
:100AC000FCCF08958093BB0084E88093BC008091A4
:100AD000BC0087FFFCCF9091B900987F81E09832ED
:100AE00009F480E0089584E88093BC008091BC0004
:100AF00087FFFCCF8091BB00089580B38C7080BBD2
:100B000081B3836F81BB089580910101811115C06C
:100B100080E40E9438058093010181110CC082E1BC
:100B20000E94620580930101811105C08FEF0E9430
:100B30006205809301010E945A0584B1807F84B9C7
:100B400085B1807F85B98AB1837F8AB98BB1837F74
:100B50008BB93E98469808950C94F2060E94210B9A
:100B6000809301010E9484050E947D05E3E4F1E089
:100B7000A5E3B1E011921D9281E0E135F807D1F7CC
:100B80000C940B0B0E94210B809301010E948405A1
:100B90000E947D05E3E4F1E0A5E3B1E011921D922E
:100BA00081E0E135F807D1F708958F929F92BF92C7
:100BB000CF92DF92EF92FF920F931F93CF93DF9329
:100BC0001F92CDB7DEB780910101882379F0809123
:100BD00034018F5F80933401811108C00E94210B82
:100BE00080930101811102C00E94B30A05E311E064
:100BF000812C912CEE24E394F12CDD24D39495E008
:100C0000C92E282D273030F580910101811142C075
:100C100080E489820E943805809301012981811135
:100C200014C082E10E946205809301012981811133
:100C30000CC0C701082C01C0880F0A94EAF7809500
:100C40000E94620580930101298129830E945A052F
:100C5000298120C02A30A1F028F4283059F0293009
:100C600061F005C02C3089F070F02D3089F0209AA9
:100C7000289810C0219A29980DC0229A2A980AC053
:100C8000239A2B9807C0529A01C0539A5B9802C0CE
:100C90003E9A469830EA3A95F1F7273018F5809158
:100CA0000101811144C080E40E9438058093010154
:100CB000882311F0B12C12C083E10E946205809359
:100CC00001018111F7CF81E40E9438058093010171
:100CD0008111F0CF0E947305B82EB0940E945A057E
:100CE0008B2D26C08FB181708D25799B02C090E03D
:100CF00001C092E0892B7C9B02C090E001C094E08F
:100D0000892B7D9B02C090E001C098E0892B7E9BDF
:100D100002C090E001C090E1892B9FB19095991F8E
:100D20009927991F9295990F907E892B01C080E099
:100D3000F8019081981719F08083C09200010E94F9
:100D40008405FFEF8F1A9F0A0F5F1F4F3EE0831647
:100D5000910409F056CF809100018823A1F08150C1
:100D600080930001882329F085E08A95F1F700003F
:100D70000AC0A3E4B1E0E5E3F1E081918D9331E0B5
:100D8000E334F307D1F70E94430881E00F90DF912D
:100D9000CF911F910F91FF90EF90DF90CF90BF9078
:100DA0009F908F900895E82FF0E0ED5BFE4F8081DB
:100DB00008950895662339F0643681F40E94AC10DA
:100DC0000E94FE140BC0FC018281882321F085EE75
:100DD0000E94200D03C085EE0E94F30D80E090E09C
:100DE000089508956091B0017091B1018091B201B0
:100DF0009091B3010E944C1756985E9825982D98B3
:100E000026982E9827982F982FE030E0309389006D
:100E10002093880030938B0020938A0030938D00BC
:100E200020938C0090E0FC013197E730F105A8F4A5
:100E3000EA5AFF4F0C949325259A2D9A0895259AE6
:100E40002D9A09C0259A2D9A269A2E9A0895259AA8
:100E50002D9A269A2E9A279A2F9A089581E008951E
:100E600081E008950C9430070E94AC102FEF84E3CA
:100E70009CE0215080409040E1F700C000000C94BD
:100E80007D180F931F93CF93DF938C01FC01C081DA
:100E9000D181CE010E94D315BE010E94D809EC0178
:100EA000B8010E943207882309F4E7C0B801CE01D7
:100EB0000E94670A882309F4E0C0B801CE010E94AD
:100EC000DC0B882309F4D9C0C531F0E7DF0708F04F
:100ED000A2C0C23080E7D80708F478C0F801828148
:100EE000882309F47FC00E94B917811102C00E94B3
:100EF0009F170E94CC1790E09093130280931202E8
:100F0000FE01E350F047E231F10520F4E35AFF4FD0
:100F10000C94932580911202816003C0809112028B
:100F20008260809312024BC0809112028460F9CFDC
:100F30008091120213C0809112028061F2CF8091E1
:100F400012028062EECF809112028064EACF80911B
:100F500012028068E6CF8091120284608860E1CF3F
:100F6000809112028E7FDDCF809112028D7FD9CFCA
:100F7000809112028B7FD5CF8091120213C0809195
:100F800012028F7ECECF809112028F7DCACF8091C8
:100F900012028F7BC6CF809112028F77C2CF8091D1
:100FA00012028B7F877FBDCF9091120297FB88271B
:100FB00080F921E0822780FB97F9909312028091BB
:100FC00012020E94D0170E94AC1057C0C115E0E772
:100FD000DE0779F0C130D047A1F081E08093510164
:100FE00080935201C801DF91CF911F910F910C9412
:100FF0002E07F8018281882309F43FC00E9434073C
:101000003CC0F80182818823C1F18091DD018160BB
:101010008093DD0132C0CC3380E7D807A1F4F8011A
:101020008281882321F01092510182E016C08091C4
:101030005101811106C086E20E94200D86E20E94C5
:10104000F30D82E018C0CD33D04739F6F801828124
:10105000882331F01092520180E20E94420E0DC0AE
:1010600080915201811106C087E20E94200D87E223
:101070000E94F30D80E20E94490E80E0DF91CF9143
:101080001F910F9108950C94AC0508950C94450898
:101090000C94460826E0729FF001112444E5849FD9
:1010A000E00DF11D1124E60FF11DEE0FFF1FE85AB0
:1010B000FE4F859194910E94EA09811520E49207E0
:1010C000B0F5811540E3940708F0E5C0803E910536
:1010D000D8F4803C910508F06BC0883A910578F40B
:1010E000853A910508F06AC08130910509F45EC126
:1010F00008F415C18430910508F058C110C18D3B2A
:10110000910508F466C00BC18F3F910509F048F4C2
:10111000803F910508F0B4C0883E910508F446C1AF
:10112000FEC0811520E2920708F0ACC00895811539
:1011300043E5940790F4811522E5920708F0CFC0AB
:10114000811541E5940708F0C5C0811520E5920797
:1011500008F0A4C09F70906A0895811545E5940732
:10116000D0F4811524E5920708F0CEC0282F2695EB
:10117000269540E2249F90011124AC01437055272D
:1011800081E090E002C0880F991F4A95E2F7822B18
:10119000932B9A680895811546E5940708F4B9C021
:1011A0009C0130562115304108F0B9C09F70B5C080
:1011B000FC01EE0FFF1FE852F0406AC0853A91052E
:1011C00009F4B0C0863A910509F4AFC083E890E411
:1011D0000895883A910509F4ABC0893A910509F45C
:1011E000AAC08A3A910509F4A9C08B3A910509F47D
:1011F000A8C08C3A910509F4A7C08B3B910509F46E
:10120000A6C08C3B910509F4A5C08D3A910509F45F
:10121000A4C0803B910509F4A3C08E3A910509F45E
:10122000A2C08F3A910509F4A1C0813B910509F450
:10123000A0C0823B910509F49FC0833B910509F44E
:101240009EC0843B910509F49DC0853B910509F43E
:101250009CC0863B910509F49BC0873B910509F42E
:101260009AC0883B910509F499C0893B910509F41E
:1012700098C08A3B910509F097C08AE296E40895E8
:10128000906508959F70880F991F885A9E4FFC01A2
:101290008591949108959927906C0895482F4370F3
:1012A00021E030E002C0220F331F4A95E2F73C688C
:1012B000AC0164E0569547956A95E1F74370342B8D
:1012C0008F708695869540E2849FC0011124822B01
:1012D000932B0895982F8827816F906A0895282F5F
:1012E0002695269540E2249F90011124AC0143707D
:1012F000552781E090E002C0880F991F4A95E2F7D8
:10130000822B932B9C680895982F8827846F906A6E
:1013100008958F719927982F88279062089580E00B
:1013200090E0089581E890E4089582E890E40895BB
:1013300082EE94E4089589EE94E408958AEE94E4AC
:10134000089585EB94E4089586EB94E4089583EB87
:1013500094E4089584EB94E4089587EB94E408956D
:101360008CEC94E408958DEC94E4089583E895E47E
:1013700008958AE895E4089582E995E4089584E95A
:1013800095E4089581E296E4089583E296E4089551
:1013900084E296E4089585E296E4089586E296E470
:1013A000089587E296E4089580E094E4089508950E
:1013B00096E0799FF001112494E5899FE00DF11DDD
:1013C0001124E60FF11DEE0FFF1FE85AFE4F859125
:1013D000949108958238910549F1B0F481339105D3
:1013E00009F459C048F48932910509F44FC08A3292
:1013F000910509F455C008958533910509F441C05C
:101400008933910599F00895833E910531F138F4BF
:10141000803E910591F0823E9105A9F00895863EA7
:10142000910501F1873E910539F10895209112024D
:1014300020FD3BC021FD39C008958091120280FF3C
:1014400034C089E341C08091120282FF32C0809192
:10145000120284FF2CC080E037C08091120282FD0E
:1014600028C0F5CF8091120283FF25C0809112021F
:1014700084FDF1CF87EE28C08091120283FD1BC04E
:10148000F5CF8091120285FF18C019C08091120219
:1014900085FF15C012C08091120286FF12C013C0D2
:1014A0008091120286FF0FC00CC080EE0DC083EE4B
:1014B0000BC082EE09C086EE07C085E305C089E255
:1014C00003C081E301C08AE290E008950895CF93BC
:1014D000DF93EC01FB018281811102C081E040C0F9
:1014E00080916001811125C0C531D047B9F70E94B4
:1014F000660A81E0809360010E94231890935F0147
:1015000080935E0110925301109255011092540184
:1015100010925701109256011092590110925801E1
:1015200010925B0110925A0110925D0110925C01C1
:1015300016C080915E0190915F010E942F18883C37
:10154000910560F680915301E82FF0E0EE0FFF1F48
:10155000EC5AFE4FD183C0838F5F8093530180E0AC
:10156000DF91CF91089556985E9825982D982698EA
:101570002E9827982F988FEF90E090938900809372
:10158000880090938B0080938A0090938D008093C5
:101590008C00259A2D9A2FEF80E792E02150804011
:1015A0009040E1F700C00000269A2E9A2FEF80E7C6
:1015B00092E0215080409040E1F700C00000279A5F
:1015C0002F9A2FEF80E792E0215080409040E1F782
:1015D00000C0000025982D982FEF80E792E0215061
:1015E00080409040E1F700C0000026982E982FEF31
:1015F00080E792E0215080409040E1F700C0000079
:1016000027982F9856985E9825982D9826982E986A
:1016100027982F98089589EA8093800089E0809325
:10162000810024982C983F988AB18F748AB96E985B
:10163000479A8BB1806B8BB9769A0E94B30A0C944F
:10164000F10680E2809301018091610181110EC059
:101650000E94320581E0809361012FEF83ED90E3DA
:10166000215080409040E1F700C0000080E40E94DB
:1016700038058093010181112EC00E94620580937C
:101680000101811128C00E9462058093010181112E
:1016900022C08FE30E9462058093010181111BC06B
:1016A0000E945A0580E40E9438058093010181114F
:1016B00012C08CE00E9462058093010181110BC071
:1016C0000E94620580930101811105C08FE30E9491
:1016D0006205809301010E945A05809101010895DD
:1016E000282F882339F090E02A3010F44D96089581
:1016F0000697089587E290E0089580916201813015
:1017000079F050F08230F1F482EE0E94200D87E5EE
:101710000E94200D87E514C082EE0E94200D12C0A9
:1017200080EE0E94200D81EE0E94200D88E10E9433
:10173000200D88E10E94F30D81EE0E94F30D80EEF2
:101740000E94F30D8FE39CE90197F1F700C00000C0
:10175000089580916201813029F010F0823041F4C7
:1017600082EE04C08CE20E94200D8CE20C94F30DFA
:101770000895FF920F931F93CF93DF938C01CCE0DA
:10178000D0E0C8010C2E02C0969587950A94E2F726
:101790008F700E94700BF82E0E94200D8F2D0E94DA
:1017A000F30D2497CC3F8FEFD80759F7DF91CF91F6
:1017B0001F910F91FF900895CF93DF93EC01C130FB
:1017C00080E8D80760F0FB018281882341F00E9405
:1017D0007D0BCE019F770E94B90B0E94A90B81E07F
:1017E000DF91CF91089590936801809367010895E8
:1017F000E0916701F0916801309721F00190F0814C
:10180000E02D099480E00895E0916701F09168016E
:10181000309721F00280F381E02D09940895E09142
:101820006701F0916801309721F00480F581E02D87
:1018300009940895209165013091660182179307FC
:1018400071F09093660180936501E0916701F091DA
:101850006801309721F00680F781E02D0994089502
:1018600020916301309164018217930771F0909386
:10187000640180936301E0916701F0916801309702
:1018800021F00084F185E02D0994089508950C94C9
:10189000460C0E941A180E94AE050C94A018CF9214
:1018A000DF92EF92FF920F931F93CF93DF93CDB709
:1018B000DEB72B970FB6F894DEBF0FBECDBF0E94E8
:1018C000D5053AE6E32E31E0F32E00E010E0C02E1D
:1018D000802F0E94D306F701D1907F01D826B1F462
:1018E0000F5F1F4F0E30110591F78FEF89838A83A9
:1018F0001B820E9423188160782F9D838C834981ED
:101900005A816B818D810E94F20C41C09091DD0162
:1019100091FF04C08B870E94D9068B8520E030E0C0
:101920004D2D50E0922FBA01022E02C07595679599
:101930000A94E2F760FF25C02E83CF82EE24E39461
:10194000F12C02C0EE0CFF1C9A95E2F790E08E217C
:101950009F2121E0892B09F420E028870E94231889
:101960008160782F9A8789874E815F8168858A8513
:101970000E94F20CF801E659FE4F80818E2580838B
:1019800006C02F5F3F4F2630310561F6A9CF0E9478
:10199000321A109169010E94F80B1817A1F00E94E9
:1019A000F80B809369012B960FB6F894DEBF0FBE3B
:1019B000CDBFDF91CF911F910F91FF90EF90DF90FE
:1019C000CF900C9448082B960FB6F894DEBF0FBE4C
:1019D000CDBFDF91CF911F910F91FF90EF90DF90DE
:1019E000CF900895CF93DF93CDB7DEB72B970FB687
:1019F000F894DEBF0FBECDBF4F83588769877A87C3
:101A00008B87DE01119686E0FD0111928A95E9F738
:101A100085E0FE01379601900D928A95E1F74981A4
:101A20005A816B817C818D819E810E9476132B96D9
:101A30000FB6F894DEBF0FBECDBFDF91CF910895F2
:101A4000CF93C82F882309F4CCC0823859F40E9460
:101A5000F80B81FDC6C089E30E9453160E941D1732
:101A600089E30CC0833879F40E94F80B80FDB9C07B
:101A700083E50E9453160E941D1783E50E9493166A
:101A8000CF910C941D17843859F40E94F80B82FDF5
:101A9000A8C087E40E9453160E941D1787E4EECF6A
:101AA0008CEF8C0F813A48F48C2F0E94721C8111AC
:101AB00098C08C2F0E945316E3CF80E28C0F8830A1
:101AC00048F4C77081E001C0880FCA95EAF70E9408
:101AD000D416D6CF8BE58C0F833078F4C53A29F035
:101AE000C63A31F482E890E005C081E890E002C097
:101AF00083E890E0CF910C941A0C88E58C0F853127
:101B000008F06FC0C83A61F1C93A69F1CA3A71F197
:101B1000CB3A79F1CC3A81F1CB3B89F1CC3B91F1D5
:101B2000CD3A99F1C03BA1F1CE3AA9F1CF3AB1F14A
:101B3000C13BB9F1C23BC1F1C33BC9F1C43BD1F1D7
:101B4000C53BD9F1C63BE1F1C73BE9F1C83BF1F137
:101B5000C93BF9F1CA3B09F03FC08AE292E03EC0BE
:101B600082EE90E03BC089EE90E038C08AEE90E0D3
:101B700035C085EB90E032C086EB90E02FC083EB60
:101B800090E02CC084EB90E029C087EB90E026C069
:101B90008CEC90E023C08DEC90E020C083E891E0D5
:101BA0001DC08AE891E01AC082E991E017C084E97B
:101BB00091E014C081E292E011C083E292E00EC095
:101BC00084E292E00BC085E292E008C086E292E0F7
:101BD00005C087E292E002C080E090E0CF910C94D3
:101BE000300CCF910895882309F44BC0823859F402
:101BF0000E94F80B81FF45C089E30E9453160E94A2
:101C00001D1789E30CC0833871F40E94F80B80FF24
:101C100038C083E50E9453160E941D1783E50E9479
:101C200093160C941D17843859F40E94F80B82FF08
:101C300028C087E40E9453160E941D1787E4EFCF47
:101C40009CEF980F913A58F390E2980F983050F427
:101C5000877091E001C0990F8A95EAF7892F0E9459
:101C6000DA16DFCF9BE5980F933020F480E090E008
:101C70000C941A0C885A853120F480E090E00C9482
:101C8000300C0895882321F00E94D4160C941D175F
:101C90000895882321F00E94DA160C941D170895E8
:101CA0008F929F92AF92BF92CF92DF92EF92FF926C
:101CB0000F931F93CF93DF931F92CDB7DEB74C01E5
:101CC000A62E472FFC01E580E2948FE0E822F28007
:101CD000FF2021F079830E94F116498149830E94F7
:101CE0004C164981882381F0FF2071F080E28A0D33
:101CF000883050F082E00E9435160E944C16BB24BA
:101D0000B394B826498101C0B12CE42FE295EF705D
:101D1000F0E0E159FF4F0C949325842F807F142F1E
:101D20001F70882311F01295107FFF2089F0112376
:101D300009F48DC180E28A0D883020F4812F0E9441
:101D4000D41603C0812F0E94E4160E941D177FC184
:101D50008A2D0E94F30D112309F490C180E28A0DAF
:101D6000883020F4812F0E94DA1603C0812F0E9450
:101D7000EA160E941D1782C1242F207F842F8F70A6
:101D8000203211F08295807FAA2021F0F1E0AF1679
:101D9000B9F020C0FF2049F0EE2009F40FC191E016
:101DA000E9120CC10E94041769C1EE2021F0E1E0A4
:101DB000EE1609F463C189830E940717898104C163
:101DC000FF2029F0F1E0FE1508F458C1F7C0E1103A
:101DD00055C1FAC0FF2021F0EE2009F4EFC037C151
:101DE000EE2009F4F1C039C1242F269526952370E1
:101DF00030E02115310521F02130310561F03EC17F
:101E0000FF2021F08A2D942F937002C080E090E093
:101E10000E941A0C33C1FF2021F08A2D942F937059
:101E200002C080E090E00E94300C28C18A2DFF2083
:101E300019F00E943A1902C00E94A2190E94271AA2
:101E40001DC1842F837009F04EC0F11017C12A2DD7
:101E5000229526952770220F220F8A2D8F70C82E6B
:101E6000D12CE12CF12C022E04C0CC0CDD1CEE1C7C
:101E7000FF1C0A94D2F7A4FE10C06FE070E080E06F
:101E800090E004C0660F771F881F991F2A95D2F72C
:101E9000609570958095909503C060E070E0CB01EF
:101EA000242F26952695237030E02230310569F0E5
:101EB0002330310589F06C297D298E299F29213015
:101EC000310571F00E94CA14D9C06C297D298E2970
:101ED0009F290E94E414D2C00E94CA14C701B6010F
:101EE0000E94B014CBC0FF2019F0842F817001C074
:101EF0008695882309F4C2C02A2D2295269527703D
:101F0000220F220F8A2D8F70C82ED12CE12CF12C9C
:101F1000022E04C0CC0CDD1CEE1CFF1C0A94D2F770
:101F2000A4FE10C06FE070E080E090E004C0660F97
:101F3000771F881F991F2A95D2F760957095809515
:101F4000909503C060E070E0CB01242F2695269584
:101F5000237030E02230310569F02330310589F0FB
:101F60006C297D298E299F292130310571F00E942D
:101F70009E1584C06C297D298E299F290E94B81541
:101F80007DC00E949E15C701B6010E94841576C0CF
:101F90000A2D10E0F801E05EF109E531F10508F0E5
:101FA00052C0E158FF4F0C9493251A2D1F70842FB7
:101FB0008F71FF2031F00E941D15812F0E94420E6B
:101FC0005DC00E943E15812F0E94490E57C0FF2020
:101FD00039F0E11053C0842F8F710E9463154EC0F9
:101FE00081E08E1508F44AC0F6CFFF2039F0842F27
:101FF0008F710E941D1542C0FF20C9F3842F8F717D
:102000000E943E153BC0FF2029F0842F8F710E9453
:10201000081534C00E94FE1431C0FF2051F0142F67
:102020001F71812F0E941D1563E0812F0E942C16C5
:1020300025C081E00E94351691E09E15F8F482E0FB
:102040000E9435161BC0FF2031F0EE2081F28A2D50
:102050000E94200D13C0EE2089F28A2D0E94F30DFC
:102060000DC04F706A2DC4010E94DA060E9423142D
:1020700005C04F706A2DC4010E94D709BB20F1F042
:102080000E94281680FD1AC0F40112820E942216B6
:102090000E941D15C4010E946C100E9422160F9010
:1020A000DF91CF911F910F91FF90EF90DF90CF9034
:1020B000BF90AF909F908F900C943E150F90DF9142
:1020C000CF911F910F91FF90EF90DF90CF90BF9035
:1020D000AF909F908F9008950F931F93CF93DF93AE
:1020E000EC01288139818B819C81892B31F03F3F24
:1020F00011F080E003C02F3FE1F781E0811113C0B0
:10210000CE010E944107882371F0688179818A811C
:102110000E941E168C010E94D2150E94A514B801BF
:10212000CE010E94500EDF91CF911F910F91089523
:102130000E94F1160E9401170E94C6160E941D17E8
:102140000E94D31A0E94271A80E090E00E941A0C85
:1021500080E090E00C94300C0E94E1160C949810F2
:102160000E941316E92FE295EF70F0E03297EE30FF
:10217000F105B8F4EC56FF4F0C949325803F59F0CD
:1021800018F4803E70F407C0843F59F404C0803EC8
:1021900010F0813F31F481E0089593FB882780F9A6
:1021A000089580E00895CF93DF9300D000D01F9270
:1021B000CDB7DEB70F900F900F900F900F90DF917B
:1021C000CF910895CF93DF9300D000D000D0CDB74A
:1021D000DEB726960FB6F894DEBF0FBECDBFDF91F7
:1021E000CF9108951F93CF93DF93C091780116E0AC
:1021F00080917901C81799F0D0E01C9FF0011D9FD4
:10220000F00D1124E658FE4F4081518162817381A7
:10221000848195810E94E2102196C770E9CFDF91F9
:10222000CF911F9108954091AA015091AB01609107
:10223000AC017091AD018091AE019091AF010C9411
:10224000E210CF938091AF0182958F7009F05FC04B
:102250008091AC01882309F45AC020917801A091A3
:1022600079016091AA017091AB018091AD019091CB
:10227000AE0131E06F3F09F030E0B32FC6E02A171E
:1022800009F445C0009721F07F3F21F44B2F03C094
:1022900041E001C040E030E040FD35C0C29FF001A8
:1022A000C39FF00D1124E658FE4F418174132BC0DB
:1022B0004081641328C04281411125C0438154816B
:1022C0004817590710F441505109481B590B483C15
:1022D0005105C8F48091AF018F7080618093AF0188
:1022E00086E0829FF001839FF00D1124E158FE4F9C
:1022F00080818F70806180838AEA91E00E946C10F7
:10230000CF910C94F2102F5F3F4F2770B8CFCF9131
:102310000895CF92DF92EF92FF920F931F93CF9386
:10232000DF93CDB7DEB762970FB6F894DEBF0FBE6E
:10233000CDBF8C0185E0F801DE011D9601900D9264
:102340008A95E1F7D8014C9111965C9111971296FC
:102350006C9112971396ED90FC9014977091AA01CE
:10236000E091AB012091AD013091AE012115310515
:1023700031F0EF3F31F481E07F3F19F403C081E099
:1023800001C080E0B82FB170CB2E80FD6CC1D09021
:10239000AC01DD2009F4F5C0F091AF01E216F306BF
:1023A00038F0C701821B930B883C910548F09BC015
:1023B000209530952E0D3F1D283C310508F093C027
:1023C0008F2F807F09F052C0E51314C0741312C020
:1023D000D62E61110FC0FF70F061F093AF010E9423
:1023E00013118AEA91E00E946C108091AF01F8010C
:1023F00085836CC1EF2831F05F3F31F481E04F3FBE
:1024000019F403C081E001C080E080FD03C081E0D9
:10241000862701C080E0F82FF170FF2E80FF1CC0DE
:10242000809178012091790136E0821709F428C162
:1024300090E0389FF001399FF00D1124E658FE4FCF
:102440007181571306C07081471303C072816713EF
:1024500003C001968770E9CFD62E662309F436C1F2
:102460008091AF0181608093AF0153C0E51308C034
:10247000741306C0611104C0D8011596FC93AEC058
:102480004D875E878D859E856A8B0E94B0106A8914
:10249000882329F1D62E662311F12091AF01822FD6
:1024A00082958F7090E002970CF460C08091AA0131
:1024B0009091AB0198878F831986FB86EA862C87DB
:1024C000CE01079651C0E51731F14D875E878D85A6
:1024D0009E856A8B0E94B0106A8981112EC0C80146
:1024E0000E946C10A4C08F2F807F69F77E2DF98A1F
:1024F000E88A89890E94D3108AEA91E00E946C10D0
:10250000EAEAF1E086E0DF011D928A95E9F70E9490
:102510001311D12CDBC07413D8CF6111D6CFD801E1
:102520001596FC93C8010E946C10EAEAF1E086E07F
:10253000DF011D928A95E9F7C9C0D62E662379F28C
:102540002091AF01822F82958F7090E0029774F0F6
:102550008091AA019091AB019A8389831B82FD82AD
:10256000EC822E83CE0101960E946C1086E0F80169
:10257000AAEAB1E001900D928A95E1F70E9421113B
:102580006FC0E216F30628F0C701821B930B9C0173
:1025900004C0209530952E0D3F1D283C310508F0D4
:1025A00052C0D62E662309F49ACFE5132CC07413BB
:1025B0002AC08091AF0180FD1DC0982F92959F7019
:1025C000C9F0D80115968C9315979F3039F09F5F0D
:1025D0009295907F8F70892B15968C93C8010E94DD
:1025E0006C1086E0F801AAEAB1E001900D928A959C
:1025F000E1F736C086E0F801AAEAB1E001900D9259
:102600008A95E1F763C04D875E878D859E850E9420
:10261000B010882379F086E0F801AAEAB1E00190D1
:102620000D928A95E1F70E9421110E941311DD2479
:10263000D3944CC08091AF0181608093AF01C801F9
:102640000E946C1043C07E2DF98AE88A89890E9415
:10265000D310EAEAF1E086E0DF011D928A95E9F7FE
:102660000E94131133C0662309F439CF4D875E876A
:102670008D859E850E94B010882309F430CFCBCF82
:102680004D875E878D859E850E941316292F229582
:102690002F7030E0223031052CF49F7041F0811111
:1026A00006C00CC0243031052CF49F7049F4805EC4
:1026B000883020F0C8010E946C10CF2CDC2C06C0A2
:1026C000D80115969C91907F91F7F8CF8D2D629649
:1026D0000FB6F894DEBF0FBECDBFDF91CF911F9133
:1026E0000F91FF90EF90DF90CF9008951F93CF93BD
:1026F000DF93CDB7DEB72C970FB6F894DEBF0FBED1
:10270000CDBF4F83588769877A878B879C87CE0197
:1027100007960E9489118823C1F02F8138858A8508
:102720009B85892B31F03F3F11F080E003C02F3FA4
:10273000E1F781E0811147C04F81588569857A852D
:102740008B859C850E94E2103EC086E0FE01379694
:10275000DE01119601900D928A95E1F7FF81E885DF
:102760004A855B854115510531F0EF3F31F481E039
:10277000FF3F19F403C081E001C080E080FD23C069
:102780002091790130E0C901019687709927609105
:10279000780170E086179707F1F1F983EA835D838A
:1027A0004C8396E0929FD001939FB00D1124A658C0
:1027B000BE4FFE01319601900D929A95E1F78093FC
:1027C00079010E94F21016E08091780190917901D0
:1027D000891779F1189FC001112486589E4F0E94D5
:1027E0008911882331F1E09178011E9FF0011124B5
:1027F000E658FE4F408151816281738184819581C9
:102800000E94E2108091780190E0019687709927EC
:1028100080937801D9CF0E94AC1010927901109268
:102820007801EAEAF1E086E0DF011D928A95E9F796
:10283000CACF2C960FB6F894DEBF0FBECDBFDF9186
:10284000CF911F910895EF92FF920F931F93CF9313
:10285000DF939C01009709F471C0F12CEE24E394FE
:10286000E9012196F9018491843740F4843008F01D
:1028700056C0813081F0823021F160C0853709F483
:1028800049C0C0F19CE7980F903708F057C08F7788
:102890000E94F30D46C089010E5F1F4FFE01849117
:1028A00090E2980F983050F48770FE2D01C0FF0F12
:1028B0008A95EAF78F2F0E94F41615C00E94200D0A
:1028C00014C089010E5F1F4FFE01849190E2980FA2
:1028D000983068F48770FE2D01C0FF0F8A95EAF7E3
:1028E0008F2F0E94FA160E941D17E8011AC00E943D
:1028F000F30DFBCF2E5F3F4FFE01C491CC2341F07F
:102900008FE99FE00197F1F700C00000C150F6CFBA
:10291000E90107C0FE01F490E901229602C00E947D
:10292000200D8F2D882341F0EFE9FFE03197F1F77B
:1029300000C000008150F6CF9E0192CFDF91CF9171
:102940001F910F91FF90EF90089508956093B40147
:102950007093B5018093B6019093B7010C949810D1
:102960000F931F930091B4011091B5012091B6010E
:102970003091B701062B172B282B392B0093B4016C
:102980001093B5012093B6013093B7011F910F91B9
:102990000C9498100F931F930091B4011091B501FE
:1029A0002091B6013091B70106231723282339233C
:1029B0000093B4011093B5012093B6013093B70191
:1029C0001F910F910C9498100F931F930091B401D5
:1029D0001091B5012091B6013091B7010627172754
:1029E000282739270093B4011093B5012093B6012D
:1029F0003093B7011F910F910C9498101092B00171
:102A00001092B1011092B2011092B3010C9498107F
:102A100041E050E060E070E004C0440F551F661FC5
:102A2000771F8A95D2F74093B0015093B10160931C
:102A3000B2017093B3010C94981041E050E060E053
:102A400070E004C0440F551F661F771F8A95D2F7A8
:102A50008091B0019091B101A091B201B091B30108
:102A6000842B952BA62BB72B8093B0019093B101AB
:102A7000A093B201B093B3010C94981041E050E0E0
:102A800060E070E004C0440F551F661F771F8A95F1
:102A9000D2F740955095609570958091B0019091D6
:102AA000B101A091B201B091B30184239523A62373
:102AB000B7238093B0019093B101A093B201B0937A
:102AC000B3010C94981041E050E060E070E004C065
:102AD000440F551F661F771F8A95D2F78091B0016A
:102AE0009091B101A091B201B091B30184279527D3
:102AF000A627B7278093B0019093B101A093B201AC
:102B0000B093B3010C9498100F931F930091B001F0
:102B10001091B1012091B2013091B301062B172B16
:102B2000282B392B0093B0011093B1012093B201EF
:102B30003093B3011F910F910C9498100F931F9332
:102B40000091B0011091B1012091B2013091B30117
:102B500006231723282339230093B0011093B101D2
:102B60002093B2013093B3011F910F910C949810F0
:102B70000F931F930091B0011091B1012091B20108
:102B80003091B30106271727282739270093B00172
:102B90001093B1012093B2013093B3011F910F91B3
:102BA0000C9498100895CF92DF92EF92FF920F93BA
:102BB0001F93CF93DF93EC01C090B401D090B50187
:102BC000E090B601F090B7018091B0019091B10111
:102BD000A091B201B091B301C82AD92AEA2AFB2AEE
:102BE0000FE110E0B701A601002E04C076956795AD
:102BF000579547950A94D2F740FD05C00150110939
:102C000088F780E007C0BE01802F0E944A08019724
:102C1000A9F3802FDF91CF911F910F91FF90EF903B
:102C2000DF90CF900895CF93DF93EC010E94D315EE
:102C3000BE010E944A08DF91CF910895CB010E9406
:102C4000131608958091B801859585958595089509
:102C50008091B8018770089598E0899F90011124B0
:102C6000622B6093B8010C941D154091B8018095BA
:102C700084238093B801982F977069F450E0282F2F
:102C8000332727FD30954217530729F08595859501
:102C900085950C943E1508959091B801977081E048
:102CA00009F480E00895909114019923D9F090914E
:102CB000120297FF17C0982F9695969596959F317B
:102CC00088F5E0910201F0910301E90FF11D877091
:102CD00021E030E001C0220F8A95EAF78181822B42
:102CE00081830895409102015091030120E030E07A
:102CF0009FEFFA01E20FF31F6281681799F09F3F7F
:102D000019F4611101C0922F2F5F3F4F2E31310511
:102D100081F79F3F39F0FA01E90FF11D97FDFA9510
:102D2000828308950895909114019923E1F0909180
:102D3000120297FF18C0982F9695969596959F31F9
:102D400020F5E0910201F0910301E90FF11D877078
:102D500021E030E001C0220F8A95EAF720958181B9
:102D6000282321830895409102015091030120E01E
:102D700030E0FA01E20FF31F9281981301C0128232
:102D80002F5F3F4F2E313105A1F7089581E090E08C
:102D9000E0910201F0910301E80FF91F1082019602
:102DA00080329105A9F708959091DC01982B9093BA
:102DB000DC01089580959091DC0198239093DC01CB
:102DC00008951092DC0108959091DB01982B909367
:102DD000DB01089580959091DB0198239093DB01AE
:102DE00008951092DB0108959091DA01982B909349
:102DF000DA01089580959091DA0198239093DA0191
:102E000008951092DA0108958093B90108951092FF
:102E1000B9010895409102015091030120E030E092
:102E200080E0FA01E20FF31F918191118F5F2F5F14
:102E30003F4F2F313105A9F70895E0910201F0913C
:102E400003018091DC018083E0910201F091030194
:102E500080819091DB01892B8083E0910201F091C8
:102E6000030180819091DA01892B80839091B901CF
:102E7000992361F0E0910201F09103018081892B97
:102E800080830E940A1781111092B901809102017A
:102E9000909103010C94040CCF92DF92EF92FF9279
:102EA0000F931F936C01EE24FF24C114D104E1049D
:102EB000F10421F46B017C0180E001C080E1332743
:102EC0002F2D1E2D0D2D011511052105310519F090
:102ED000885F6801790197018601A4E036952795FE
:102EE00017950795AA95D1F701151105210531050B
:102EF00019F08C5F6801790197018601F2E036953F
:102F0000279517950795FA95D1F701151105210514
:102F1000310519F08E5F68017901B701A601769538
:102F2000679557954795452B462B472B09F08F5FA3
:102F30001F910F91FF90EF90DF90CF9008956DEE6D
:102F40007EEF80E090E00E94CD2560E082E090E09E
:102F50000E94BB2560E083E090E00E94BB2560E01A
:102F600084E090E00E94BB2560E085E090E00C9456
:102F7000BB2580E090E00E94B52521E08D3E9E4F6C
:102F800009F020E0822F089582E090E00C94AD25B6
:102F900083E090E00C94AD2584E090E00C94AD25A6
:102FA000682F84E090E00C94BB2580911802843057
:102FB00021F11092DE0120E488E190E00FB6F89450
:102FC000A895809360000FBE2093600080E00E946F
:102FD000480883B7817F846083BF83B7816083BFE4
:102FE0007894889583B78E7F83BF88E10FB6F89475
:102FF00080936000109260000FBE08950895CF93F3
:103000000E94C2050E94D5050E94FE17C0E08C2FC9
:103010000E94D306811105C0CF5FCE30C1F780E09A
:1030200001C081E0CF9108950E94AC100E94F80B7E
:103030000C94480882E084BD93E095BD9AEF97BD5B
:1030400080936E0008952FB7F8948091DF019091DE
:10305000E001A091E101B091E2012FBF0895CF926C
:10306000DF92EF92FF920F931F932FB7F894409146
:10307000DF015091E0016091E1017091E2012FBF09
:103080006A017B01EE24FF248C0120E030E0C016B1
:10309000D106E206F30610F441505109481B590BC2
:1030A000CA011F910F91FF90EF90DF90CF9008958C
:1030B0001F920F920FB60F9211248F939F93AF938D
:1030C000BF938091DF019091E001A091E101B09167
:1030D000E2010196A11DB11D8093DF019093E001F3
:1030E000A093E101B093E201BF91AF919F918F91C5
:1030F0000F900FBE0F901F9018950E946821F894B2
:103100002FEF87EA91E6215080409040E1F700C020
:10311000000087E090EBDC01809321029093220273
:10312000A0932302B09324022CE088E190E00FB634
:10313000F894A895809360000FBE20936000FFCFA5
:103140000E94B917811102C00E949F170E94C417E4
:103150008093DD010E94CC1790E09093130280933E
:1031600012020E94C817682F70E080E090E00C9473
:10317000A6148091E50180FF0BC06091070185E0F6
:10318000689FB001112475956795759567952AC05C
:1031900081FF09C06091070185E0689FB00111249B
:1031A000759567951FC082FF07C06091070185E094
:1031B000689FB001112416C04091E6014423C9F074
:1031C00060910601461788F72091070185E0289F46
:1031D00090011124429FC001439F900D112470E083
:1031E0000E947F256038710540F46115710539F042
:1031F00002C065E070E0862F08958FE7089581E0B2
:1032000008958091E50180FF08C06091050170E09C
:10321000759567957595679521C081FF06C060918A
:10322000050170E07595679519C082FF04C0609133
:10323000050170E010C08091E6018823C1F0609123
:1032400004018617A0F790910501989FC0011124F1
:1032500070E00E947F256038710528F461157105C2
:1032600021F0862F08958FE7089581E0089561E0A9
:1032700070E0F4CF803F21F40E94B918819504C01A
:10328000813F29F40E94B9188093E9010895823F93
:1032900021F40E94B918819504C0833F29F40E944B
:1032A000B9188093E8010895893F19F40E94011923
:1032B00005C08A3F31F40E94011981958093EA018B
:1032C00008958B3F21F40E940119819504C08C3F21
:1032D00029F40E9401198093EB010895843F21F4A1
:1032E0008091E701816017C0853F21F48091E7015B
:1032F000826011C0863F21F48091E70184600BC099
:10330000873F21F48091E701886005C0883F31F450
:103310008091E70180618093E70108958D3F21F45A
:103320008091E50181600BC08E3F21F48091E50121
:10333000826005C08F3F29F48091E501846080930D
:10334000E5010895803F39F48091E90187FF6CC061
:103350001092E90169C0813F29F48091E9011816B2
:10336000BCF362C09091E801823F29F497FF5CC0F2
:103370001092E80159C0833F19F41916CCF354C0D8
:10338000893F41F48091EA0118160CF04DC010926B
:10339000EA014AC08A3F29F48091EA0187FF44C0CC
:1033A000F6CF8B3F39F48091EB0187FF3DC010923F
:1033B000EB013AC08C3F29F48091EB011816BCF365
:1033C00033C0843F21F48091E7018E7F17C0853F91
:1033D00021F48091E7018D7F11C0863F21F4809117
:1033E000E7018B7F0BC0873F21F48091E701877F46
:1033F00005C0883F31F48091E7018F7E8093E7011B
:1034000013C08D3F21F48091E5018E7F0BC08E3F6C
:1034100021F48091E5018D7F05C08F3F29F48091D3
:10342000E5018B7F8093E5018091E80181110EC059
:103430008091E90181110AC08091EA01811106C0E1
:103440008091EB01811102C01092E601089587EE90
:1034500091E00E940F0C0E9423189093E401809346
:10346000E30108951F93CF93DF938091E30190913F
:10347000E4010E942F184091E601442321F020919D
:10348000080130E006C0209109015AE0259F900113
:1034900011248217930708F482C08091E8011091EB
:1034A000E901D091EA01C091EB01811107C011112E
:1034B00005C0D11103C0CC2309F471C04F3F19F0EE
:1034C0004F5F4093E601181624F40E94B9188093C8
:1034D000E8018091E80187FF05C00E94B918819535
:1034E0008093E801111624F40E94B9188093E90131
:1034F0008091E90187FF05C00E94B91881958093EA
:10350000E9016091E801662339F11091E901112385
:1035100019F1772767FD7095872F972F0E949024C8
:1035200023E333E343E35FE30E94F4240E945D243A
:103530006093E801612F772767FD7095872F972F9C
:103540000E94902423E333E343E35FE30E94F424E7
:103550000E945D246093E9011D1624F40E94011964
:103560008093EA018091EA0187FF05C00E9401195A
:1035700081958093EA011C1624F40E94011980931E
:10358000EB018091EB0187FF05C00E940119819535
:103590008093EB01DF91CF911F910C94271ADF915B
:1035A000CF911F910895E7EEF1E085E0DF011D92D4
:1035B0008A95E9F71092E6011092E50108958330AB
:1035C00081F128F4813059F08230D1F008958530AE
:1035D00009F449C0B8F1863009F456C00895209125
:1035E0000901862F90E0820F911D8F3F910520F4F5
:1035F000620F6093090108958FEF80930901089588
:1036000020910801862F90E0820F911D8F3F910538
:1036100020F4620F6093080108958FEF80930801F2
:10362000089520910701862F90E0820F911D8F3F12
:10363000910520F4620F6093070108958FEF809346
:103640000701089520910601862F90E0820F911DB9
:103650008F3F910520F4620F6093060108958FEF6C
:1036600080930601089520910501862F90E0820F36
:10367000911D8F3F910520F4620F6093050108951D
:103680008FEF80930501089520910401862F90E02B
:10369000820F911D8F3F910520F4620F609304010A
:1036A00008958FEF809304010895833011F128F479
:1036B000813049F0823091F00895853081F120F118
:1036C0008630C1F1089580910901681720F4861BA6
:1036D00080930901089510920901089580910801CD
:1036E000681720F4861B8093080108951092080142
:1036F000089580910701681720F4861B80930701C5
:10370000089510920701089580910601681720F42A
:10371000861B8093060108951092060108958091FA
:103720000501681720F4861B809305010895109207
:103730000501089580910401681720F4861B809389
:10374000040108951092040108958D3109F43FC0D9
:1037500008F5803109F485C070F4873009F456C04B
:1037600018F48630D9F131C08B3009F4AAC08E30FC
:1037700009F466C02AC0863109F4A3C020F481315F
:1037800009F479C022C0893109F49BC08B3109F456
:103790004DC01BC0853309F48CC048F4873209F44E
:1037A00088C008F478C0893209F483C00EC083341D
:1037B00038F48A3308F06DC0883309F482C005C03C
:1037C000833409F476C0883499F080E008950E942B
:1037D000271D0E94F80B0E94480873C08091DD01EC
:1037E000817F8E7F8093DD0181E08093ED010895DC
:1037F0000E94AC102FEF83ED90E321508040904069
:10380000E1F700C000000E947D185BC09091DD01CF
:10381000892F8095817080FB90F919F096609860EF
:103820001DC0997F977F9093DD014BC09091DD0182
:1038300091FB882780F921E0822780FB91F909C05C
:103840009091DD0192FB882780F921E0822780FB9F
:1038500092F99093DD018823A1F191609093DD01AD
:1038600008959091DD0193FB882780F921E082275C
:1038700080FB93F9EECF0E94AC109091120297FB5F
:10388000882780F921E0822780FB97F99093120224
:1038900018C027EC01C023EE280F61E070E080E043
:1038A00090E004C0660F771F881F991F2A95D2F7F2
:1038B00004C061E070E080E090E00E94A6140E94E5
:1038C000AC1081E0089580E0089580E008958E5165
:1038D0008A3030F4E82FF0E0EB5EFE4F80810895EF
:1038E00080E00895CF93C82F8091ED01813079F069
:1038F00018F08230D1F183C0E0910201F091030110
:103900008081813169F0823209F07BC009C0E09189
:103910000201F09103018081813111F0823249F47A
:103920008C2F0E94631C81111DC08C2F0E94A51B2F
:103930001AC08C2F0E94651C811114C0C43179F00B
:1039400048F4CB3079F0C03109F05FC082E0809359
:10395000ED0108C0C93219F0C83321F056C01092E9
:10396000ED0153C081E0817052C0C93281F110F580
:10397000C43169F1A8F4C73009F045C08AE08093EA
:10398000090194E19093080193E0909307018093DB
:10399000060188E08093050188E28093040133C02A
:1039A00082EE8C0F863078F58C2F0E94671C8093F6
:1039B000EC0129C0CE34E9F020F4CB3421F56AE0E3
:1039C00013C0C13579F0C235F1F461E00DC08091CA
:1039D000EC01882319F01092EC0115C081E080936E
:1039E000ED0115C061E006C08091EC010E94DF1A74
:1039F0000AC06AE08091EC010E94551B04C010923D
:103A0000ED0180E004C081E002C080E0ACCFCF9146
:103A10000895E1E8F0E080818860808380818160A2
:103A200080838FB7F89493E09093890090ED909302
:103A300088008FBF0895EFE6F0E080818260808388
:103A40000895EFE6F0E080818D7F80830895EFE6B2
:103A5000F0E0808192E08927808308951F920F9281
:103A60000FB60F9211242F933F934F935F936F9351
:103A70007F938F939F93AF93BF93EF93FF93809127
:103A8000EE019091EF0101969093EF018093EE018A
:103A9000811103C082E00E944808E091EF01E695A1
:103AA000E695F0E0E851F84FE4918091EE018E1335
:103AB00003C080E00E944808FF91EF91BF91AF9151
:103AC0009F918F917F916F915F914F913F912F9136
:103AD0000F900FBE0F901F901895809110020895BF
:103AE000CF93DF9300D01F92CDB7DEB7209118029D
:103AF000243019F523E029839B838A832093E900EE
:103B00008FEF9091E800815095FD06C095ED9A9554
:103B1000F1F700008111F5CF8091E80085FF0DC01D
:103B200040E050E063E070E0CE0101960E94D61FB5
:103B30008091E8008E778093E8000F900F900F90AF
:103B4000DF91CF910895CF93DF9300D01F92CDB72F
:103B5000DEB720911802243021F522E029839B83CF
:103B60008A8383E08093E9008FEF9091E800815091
:103B700095FD06C095ED9A95F1F700008111F5CFFE
:103B80008091E80085FF0DC040E050E063E070E008
:103B9000CE0101960E94D61F8091E8008E77809317
:103BA000E8000F900F900F90DF91CF910895209132
:103BB00018022430F1F422E02093E9002FEF309135
:103BC000E800215035FD06C035ED3A95F1F70000CB
:103BD0002111F5CF2091E80025FF0BC040E050E017
:103BE00065E070E00E94D61F8091E8008E77809398
:103BF000E8000895CF93DF93EC01809118028430A0
:103C000009F046C0909114019923D9F090911202C5
:103C100097FF17C08093E9008FEF9091E8008150E3
:103C200095FD06C095E19A95F1F700008111F5CF59
:103C30008091E80085FF2CC040E050E060E270E039
:103C400017C081E08093E9008FEF9091E8008150E8
:103C500095FD06C095ED9A95F1F700008111F5CF1D
:103C60008091E80085FF14C040E050E068E070E01B
:103C7000CE010E94D61F8091E8008E778093E800E5
:103C800080E2FE01A0EFB1E001900D928A95E1F78C
:103C9000DF91CF91089580911702811109C00E9490
:103CA00068210E94C5218091E20084608093E20037
:103CB000089510921702089508950C941B1D0E94F8
:103CC00014180E94211D0E94F80B0C94480842E031
:103CD00061EC81E00E94E22042E061EC82E00E941F
:103CE000E22042E061EC83E00E94E22042E261ECEB
:103CF00084E00C94E22080911A02833009F455C0CC
:103D000030F4813071F0823009F48EC008958A3029
:103D100009F47AC08B3009F460C0893009F09CC086
:103D200020C080911902813A09F096C08091E80084
:103D3000877F8093E80080911D0290911E02892B5D
:103D400021F060E080E090E003C060E280EF91E06D
:103D500070E00E941F208091E8008B778093E8003C
:103D6000089580911902813209F076C080911D0278
:103D700090911E02009719F0039709F06DC0809191
:103D8000E800877F8093E8008091E80082FD05C00D
:103D9000809118028111F8CF5FC08091F10080936B
:103DA00010028091E8008B7753C080911902813A0C
:103DB00009F052C080911D0290911E02892B09F0DA
:103DC0004BC08091E800877F8093E8008091E800F5
:103DD00080FFFCCF8091140136C08091190281329E
:103DE000D9F580911D0290911E02892BA9F5809131
:103DF000E800877F8093E8000E94172180911B02D2
:103E0000809314010C94AC1080911902813221F539
:103E10008091E800877F8093E8000E9417218091BD
:103E20001C0280931102089580911902813AA1F435
:103E30008091E800877F8093E8008091E80080FF10
:103E4000FCCF809111028093F1008091E8008E7781
:103E50008093E8000C941721089584B7877F84BF6E
:103E600088E10FB6F89480936000109260000FBE56
:103E700080E880936100109261000E94470C0E94CC
:103E800068210E94C5218091E20084608093E20055
:103E900078940E9440240E94490C8AE091E00E949C
:103EA000F30B0E94091D80911802853069F40E946D
:103EB000D517809116028823B1F30E94FF1788233B
:103EC00091F30E94C01FEFCF0E944F0CECCF292F1F
:103ED000332723303105A9F06CF42130310509F482
:103EE00042C02230310509F043C08DE690E02CE558
:103EF00038E042C021323105C9F02232310519F1D2
:103F000037C099278130910541F08230910541F009
:103F1000892B71F5E8E5F8E005C0E0E4F8E002C0BF
:103F2000E8E2F8E0849190E09F0126C0643000F55B
:103F3000E62FF0E0EE0FFF1FE55DFE4F208131819F
:103F400089E090E019C0643098F4E62FF0E0DF01DA
:103F5000AA0FBB1FAD5DBE4F2D913C91E15EFE4FA0
:103F6000808190E009C082E190E029EC38E004C053
:103F700080E090E020E030E0FA0131832083089572
:103F800080E189BD82E189BD09B400FEFDCF809149
:103F9000D8008F7D8093D8008091E000826080936C
:103FA000E0008091E00081FDFCCF0895CF92DF9288
:103FB000EF92FF920F931F93CF93DF937C018B01BE
:103FC000EA010E943821811131C0209731F08881A7
:103FD0009981081B190BE80EF91EC12CD12C011573
:103FE000110519F18091E80085FD14C08091E80069
:103FF0008E778093E800209741F0888199818C0D1D
:104000009D1D9983888385E011C00E9438218823F3
:1040100031F30CC0F70181917F018093F1000150D1
:104020001109FFEFCF1ADF0ADACF80E0DF91CF91DD
:104030001F910F91FF90EF90DF90CF900895209106
:104040001F02309120022617370748F061157105CD
:1040500039F42091E8002E772093E80001C0B901DF
:10406000FC0120E061157105B9F1809118028823E7
:1040700009F440C0853009F43FC08091E80083FD19
:104080003DC08091E80082FF06C08091E80082FF79
:1040900026C080E008958091E80080FFE3CF209162
:1040A000F3008091F20090E0922B6115710551F0C0
:1040B0008830910538F421912093F1006150710905
:1040C0000196F3CF21E0089709F020E08091E80005
:1040D0008E778093E800C6CF2111C7CFD6CF8091CD
:1040E0001802882339F0853039F08091E80083FF89
:1040F000CCCF04C082E0089583E0089581E0089564
:1041000020911F02309120022617370748F06115D1
:10411000710539F42091E8002E772093E80001C062
:10412000B901FC0120E061157105C1F1809118020F
:10413000882309F441C0853009F440C08091E8002B
:1041400083FD3EC08091E80082FF06C08091E800B8
:1041500082FF27C080E008958091E80080FFE3CFD0
:104160002091F3008091F20090E0922B611571058F
:1041700059F08830910540F424912093F100319654
:10418000615071090196F2CF21E0089709F020E013
:104190008091E8008E778093E800C5CF2111C6CFCB
:1041A000D5CF80911802882339F0853039F080917D
:1041B000E80083FFCBCF04C082E0089583E0089538
:1041C00081E00895982F973058F59093E90098175B
:1041D00039F07091EC002091ED005091F00003C097
:1041E000242F762F50E021FF19C03091EB003E7F45
:1041F0003093EB003091ED003D7F3093ED00309136
:10420000EB0031603093EB007093EC002093ED00F5
:104210005093F0002091EE0027FF07C09F5FD3CF9F
:104220008F708093E90081E0089580E00895809187
:10423000190287FD05C08091E80080FF0EC012C002
:104240008091E80082FD05C0809118028111F8CFAD
:1042500008958091E8008B7708C080911802811141
:10426000EACF08958091E8008E778093E800089562
:104270008091E4009091E50045E62091EC0020FF5C
:1042800021C02091E80020FD21C0209118022223A6
:1042900089F0253089F02091EB0025FD0FC0209199
:1042A000E4003091E5002817390739F3415041F017
:1042B000C901E3CF82E0089583E0089581E0089585
:1042C00084E008952091E80022FFDFCF80E0089588
:1042D0000E94D6210E94DE21E0EEF0E08081816024
:1042E0008083E8EDF0E080818F77808319BCA7EDB3
:1042F000B0E08C918E7F8C9380818F7E8083109232
:10430000170208950F931F93CF93DF930E94D62136
:104310000E94DE21C8EDD0E088818F778883888174
:104320008068888388818F7D888319BC10921802E9
:1043300010921402109216021092150200EE10E074
:10434000F80180818B7F808388818160888342E04F
:1043500060E080E00E94E220E1EEF0E080818E7F6C
:104360008083E2EEF0E080818160808380818860DC
:104370008083F80180818E7F80838881806188833B
:10438000DF91CF911F910F910895E8EDF0E08081CA
:104390008F7E8083E7EDF0E080818160808384E020
:1043A00082BF81E0809317020C948221E8EDF0E057
:1043B00080818E7F80831092E20008951092DA004F
:1043C0001092E10008951F920F920FB60F921124E0
:1043D0002F933F934F935F936F937F938F939F930D
:1043E000AF93BF93EF93FF938091E10082FF0BC0E7
:1043F0008091E20082FF07C08091E1008B7F809373
:10440000E1000E943F248091DA0080FF1FC080916C
:10441000D80080FF1BC08091DA008E7F8093DA0085
:104420008091D90080FF0DC080E189BD82E189BD06
:1044300009B400FEFDCF81E0809318020E944B1E5C
:1044400005C019BC109218020E94591E8091E1000B
:1044500080FF19C08091E20080FF15C08091E200CA
:104460008E7F8093E2008091E20080618093E20081
:104470008091D80080628093D80019BC85E0809339
:1044800018020E945D1E8091E10084FF30C080917F
:10449000E20084FF2CC080E189BD82E189BD09B4BE
:1044A00000FEFDCF8091D8008F7D8093D800809151
:1044B000E1008F7E8093E1008091E2008F7E809307
:1044C000E2008091E20081608093E200809114021A
:1044D000882311F084E007C08091E30087FF02C0C9
:1044E00083E001C081E0809318020E945F1E8091EA
:1044F000E10083FF29C08091E20083FF25C0809105
:10450000E100877F8093E10082E08093180210929F
:1045100014028091E1008E7F8093E1008091E2009F
:104520008E7F8093E2008091E20080618093E200C0
:1045300042E060E080E00E94E2208091F00088602C
:104540008093F0000E945C1EFF91EF91BF91AF91AC
:104550009F918F917F916F915F914F913F912F919B
:104560000F900FBE0F901F9018951F920F920FB6CD
:104570000F9211242F933F934F935F936F937F93E9
:104580008F939F93AF93BF93CF93EF93FF93C0917C
:10459000E900CF708091EC001092E9008091F0006A
:1045A000877F8093F00078940E94F1221092E900B6
:1045B0008091F00088608093F000C093E900FF9143
:1045C000EF91CF91BF91AF919F918F917F916F911B
:1045D0005F914F913F912F910F900FBE0F901F90C1
:1045E00018951F93CF93DF93CDB7DEB7AA970FB679
:1045F000F894DEBF0FBECDBFE9E1F2E08091F1009B
:10460000819322E0E132F207C9F70E947B1E80917C
:10461000E80083FF1CC12091190230911A02832FF8
:1046200090E08A30910508F012C1FC01EE55FF4F71
:104630000C949325203881F0223809F008C180912C
:104640001D028F708093E9008091EB0085FB882725
:1046500080F91092E90006C080911502909116022F
:10466000911182609091E800977F9093E800809389
:10467000F1001092F100C5C0822F8D7F09F0E7C0D4
:10468000222319F0223061F0E2C080911B028130B8
:1046900009F0DDC0333009F080E08093160228C0B5
:1046A00080911B02811124C020911D022F7009F4FA
:1046B000CEC02093E9008091EB0080FF19C080916B
:1046C000EB00333011F4806211C080618093EB0005
:1046D00081E090E0022E01C0880F0A94EAF78093EF
:1046E000EA001092EA008091EB0088608093EB0072
:1046F0001092E9008091E800877F86C02111A7C051
:1047000010911B021F778091E3008078812B8093AA
:10471000E3008091E800877F8093E8000E941721E2
:104720008091E80080FFFCCF8091E3008068809357
:10473000E300112311F083E001C082E080931802AE
:1047400086C02058223008F082C080911B029091D0
:104750001C028C3D23E0920779F583E08A838AE28C
:1047600089834FB7F894DE01139620E03EE051E2D2
:10477000E32FF0E050935700E49120FF03C0E2954F
:10478000EF703F5FEF708E2F90E0EA3010F0C79629
:1047900001C0C0968D939D932F5F243149F74FBF81
:1047A0008091E800877F8093E8006AE270E0CE01A4
:1047B00001960E941F2014C0AE014F5F5F4F6091B1
:1047C0001D020E94671F009709F441C02091E80074
:1047D000277F2093E800BC0189819A810E94802074
:1047E0008091E8008B778093E80031C0203879F51C
:1047F0008091E800877F8093E80080911402809385
:10480000F1008091E8008E778093E8000E941721E4
:104810001EC021111CC090911B029230C0F48091E7
:10482000E800877F8093E800909314020E9417218C
:1048300080911402811104C08091E30087FF02C0BF
:1048400084E001C081E0809318020E94671E80917D
:10485000E80083FF0AC08091E800877F8093E8002A
:104860008091EB0080628093EB00AA960FB6F894DB
:10487000DEBF0FBECDBFDF91CF911F910895089588
:10488000CF93809118028823B1F08091E9008F7056
:104890009091EC0090FF02C090E801C090E0C92F19
:1048A000C82B1092E9008091E80083FD0E94F1225C
:1048B000CF70C093E900CF91089504D06894B111EE
:1048C0008DC0089570D088F09F5790F0B92F992728
:1048D000B751A0F0D1F0660F771F881F991F1AF00B
:1048E000BA95C9F712C0B13081F077D0B1E0089520
:1048F00074C0672F782F8827B85F39F0B93FCCF3A1
:10490000869577956795B395D9F73EF49095809500
:10491000709561957F4F8F4F9F4F0895E89409C020
:1049200097FB3EF490958095709561957F4F8F4FE2
:104930009F4F9923A9F0F92F96E9BB279395F695F8
:10494000879577956795B795F111F8CFFAF4BB0F76
:1049500011F460FF1BC06F5F7F4F8F4F9F4F16C0DA
:10496000882311F096E911C0772321F09EE8872F64
:10497000762F05C0662371F096E8862F70E060E020
:104980002AF09A95660F771F881FDAF7880F969599
:10499000879597F9089557FD9058440F551F59F082
:1049A0005F3F71F04795880F97FB991F61F09F3F1C
:1049B00079F087950895121613061406551FF2CF45
:1049C0004695F1DF08C0161617061806991FF1CF95
:1049D00086957105610508940895E894BB276627BC
:1049E0007727CB0197F908950BD078C069D028F0CC
:1049F0006ED018F0952309F05AC05FC01124EECF95
:104A0000CADFA0F3959FD1F3950F50E0551F629F29
:104A1000F001729FBB27F00DB11D639FAA27F00D17
:104A2000B11DAA1F649F6627B00DA11D661F829F3E
:104A30002227B00DA11D621F739FB00DA11D621F23
:104A4000839FA00D611D221F749F3327A00D611D40
:104A5000231F849F600D211D822F762F6A2F112422
:104A60009F5750408AF0E1F088234AF0EE0FFF1F75
:104A7000BB1F661F771F881F91505040A9F79E3FAC
:104A8000510570F014C0AACF5F3FECF3983EDCF301
:104A9000869577956795B795F795E7959F5FC1F7E9
:104AA000FE2B880F911D9695879597F9089597F994
:104AB0009F6780E870E060E008959FEF80EC0895C4
:104AC00000240A94161617061806090608950024ED
:104AD0000A9412161306140605060895092E039467
:104AE000000C11F4882352F0BB0F40F4BF2B11F4DB
:104AF00060FF04C06F5F7F4F8F4F9F4F089597FBFC
:104B0000072E16F4009407D077FD09D00E9499254E
:104B100007FC05D03EF4909581959F4F08957095C0
:104B200061957F4F0895EE0FFF1F0590F491E02DE2
:104B30000994AA1BBB1B51E107C0AA1FBB1FA617E4
:104B4000B70710F0A61BB70B881F991F5A95A9F736
:104B500080959095BC01CD010895F999FECF92BD45
:104B600081BDF89A992780B50895A8E1B0E042E0A8
:104B700050E00C94D525262FF999FECF92BD81BD2A
:104B8000F89A019700B4021639F01FBA20BD0FB68B
:104B9000F894FA9AF99A0FBE08950196272F0E9469
:104BA000BC250C94BB25DC01CB01FC01F999FECF9F
:104BB00006C0F2BDE1BDF89A319600B40D924150A5
:0A4BC0005040B8F70895F894FFCFB5
:104BCA000520BA0128080A03140A6D1DFA1DD71D0B
:104BDA00A31D701D01010203040506070809004010
:104BEA004D363997094A091409DB086E088708A067
:044BFA0008B90800EE
:00000001FF
