:100000000C94CB040C940F050C940F050C940F0565
:100010000C940F050C940F050C940F050C940F0510
:100020000C940F050C940F050C946C0F0C943E105F
:100030000C940F050C940F050C940F050C940F05F0
:100040000C940F050C9467240C940F050C940F0569
:100050000C940F050C940D1E0C940F050C940F05B9
:100060000C940F050C940F050C940F050C940F05C0
:100070000C940F050C940F050C940F050C940F05B0
:100080000C940F050C940F050C940F050C940F05A0
:100090000C940F050C940F050C940F050C940F0590
:1000A0000C940F050C940F050C940F0554054D0589
:1000B0005205450548054B055005A310C510B01164
:1000C000C510B01107112A11B0117F1192116C14D3
:1000D0006C149B149B14D314F5141D161D160015D7
:1000E0001D16A715A71510161D161D161816B415E2
:1000F000B415B415B415B415B415B415B415B415B8
:10010000B415B415B415B415B415B415B415C61595
:10011000D415DB15E215EC1535002B002944E10060
:10012000E00000001E00140004001D4103522A00DC
:100130001F001A0016001B003900280020000800CC
:1001400007000600E3002C0021001500090019003B
:1001500002520000220017000A0005000000000003
:100160002D002F0000000552000064302E003000EA
:10017000000005540000AA0023001C000B001144DD
:100180000000A900240018000D001000E700A800DE
:1001900025000C000E0036000252E300260012007B
:1001A0000F0037000252E2002700130033003841ED
:1001B000035229002A0031003400E500E400000069
:1001C00001000100010001000100000001001F0208
:1001D000310001000100010001002D023800210260
:1001E0000100010001002F002F0231020100010077
:1001F000010030003002350201000100010023023D
:10020000250235000000010001000100000001008E
:1002100000000100010001000000010000000100D9
:1002200001001E0238022E02000001000100360209
:1002300026022202010001000100370227023402D7
:100240000100010001002E002D003400010001001A
:100250000100240220020100010001000100010050
:100260000100010001000000010001000100010087
:10027000010000000100FD00FE00FF000100010080
:1002800001000100F4000100010001000100010073
:10029000F60001000100010001000100F50001006D
:1002A0000100010001000100010001000000010047
:1002B0000100010000000100000001000100010038
:1002C00000000100000001000100FB00F20001003D
:1002D000000001000100FA00F100F400010001003B
:1002E00001005100F000F600010001000100520081
:1002F000F300F500010001000100F9000100010018
:10030000010001000100FC000100010001000000EB
:100310004400010044000100010000003A00010017
:100320003A000100010001003B0001003B00010018
:10033000010001003C0001003C000100010001003F
:100340003D0001003D000100010001003E000100F0
:100350003E000100000001004400010000004400D4
:100360000000010045000100000045000000010000
:100370003F0001003F0001000000010040000100BB
:1003800040000100010001004100010041000100A6
:1003900001000100420001004200010001000100D3
:1003A000430001004300010001000100450001007D
:1003B00045000100010000000050010001000100A3
:1003C0000100000001000100040101000100010022
:1003D00001000100490001000100010001000100CD
:1003E0004C000100010001000100010001000100BA
:1003F00001000100010001000100010000000100F6
:1004000001000100000001000000010001000100E6
:100410000000010000000100010001005000010087
:100420000000010001000100510001000100010075
:100430000100500852004B000100010001004F086C
:100440004F004E0001000100010001000100010009
:100450000100010001000100010001000100000095
:100460000100010001000100010000000100010085
:100470000100010001000100010001000100010074
:100480000100010001000100010001000100010064
:100490000100010001000100010001000100010054
:1004A0000100010000000100010001000000010046
:1004B0000000010001000100000001000000010037
:1004C0000100010001000100000001000100240002
:1004D00021001E00270001003100250022001F001E
:1004E0000100010025022600230020003600010043
:1004F0002D002E022E02280037000100010001000D
:1005000001000100010000000000000000000000E8
:1005100000000000000000000000000000000000DB
:1005200000000000000000000000000000000000CB
:1005300000000000000000000000000000000000BB
:1005400000000000000000000000000000000000AB
:10055000000000000000000000000000000000009B
:10056000000000000000000000000000000000008B
:10057000000000000000000000000000000000007B
:10058000000000000000000000000000000000006B
:10059000000000000000000000000000000000005B
:1005A000000000000000000000000000000000004B
:1005B000000000000000000000000000000000003B
:1005C000000000000000000000000000000000002B
:1005D000000000000000000000000000000000001B
:1005E000000000000000000000000000000000000B
:1005F00000000000000000000000000000000000FB
:1006000000000000000000000000000000000000EA
:1006100000000000000000000000000000000000DA
:1006200000000000000000000000000000000000CA
:1006300000000000000000000000000000000000BA
:1006400000000000000000000000000000000000AA
:10065000000000000000000000000000000000009A
:10066000000000000000000000000000000000008A
:10067000000000000000000000000000000000007A
:10068000000000000000000000000000000000006A
:10069000000000000000000000000000000000005A
:1006A000000000000000000000000000000000004A
:1006B000000000000000000000000000000000003A
:1006C000000000000000000000000000000000002A
:1006D000000000000000000000000000000000001A
:1006E000000000000000000000000000000000000A
:1006F00000000000000000000000000000000000FA
:1007000001000100010001000100000001000100E2
:1007100001000100010001000100010001000100D1
:1007200001000100010001000100010001000100C1
:1007300001000100010001000100010001000100B1
:1007400001000100000001000100010000000100A3
:100750000000010001000100000001000000010094
:100760000100010001000100000001000100010082
:100770000100010001000100010001000100010071
:100780000100010001000100010001000100010061
:100790000100010001000100010001000100010051
:1007A000010001000100000016034500720067000F
:1007B0006F0044006F007800200045005A000000E0
:1007C00016034500720067006F0044006F00780058
:1007D000200045005A0000000403090409026D00CE
:1007E000040100A0FA09040000010301010009212D
:1007F00011010001223F000705810308000A0904D6
:1008000001000103010200092111010001224D0034
:100810000705820308000A09040200010300000022
:100820000921110100012236000705830308000A8F
:100830000904030001030000000921110100012245
:1008400039000705840310000112011001000000A7
:1008500008EDFE071301000102000105010906A1D0
:1008600001050719E029E7150025019508750181A3
:100870000205081901290595057501910295017573
:100880000391010507190029771500250195787551
:10089000018102C005010980A1018502160100261F
:1008A000B7001A01002AB700751095018100C00534
:1008B0000C0901A1018503160100269C021A010002
:1008C0002A9C02751095018100C005010902A10151
:1008D0000901A10005091901290515002501950542
:1008E0007501810295017503810105010930093106
:1008F0001581257F95027508810609381581257FA8
:10090000950175088106050C0A38021581257F9529
:100910000175088106C0C005010906A10105071976
:10092000E029E715002501950875018102950175FB
:1009300008810105081901290595057501910295A0
:1009400001750391010507190029FF150025FF9581
:100950000675088100C000000000000000000000D3
:1009600000010204060A0F17202C3A4A5D71879D88
:10097000B3C7DAE9F5FCFFFCF5E9DAC7B39D877187
:100980005D4A3A2C20170F0A0604020100000000FD
:1009900000000000000011241FBECFEFDAE0DEBF30
:1009A000CDBF04B603FE24C08091F9019091FA01F5
:1009B000A091FB01B091FC018730904BA740B04B58
:1009C000B9F41092F9011092FA011092FB01109201
:1009D000FC0114BE84B7877F84BF88E10FB6F8940A
:1009E00080936000109260000FBEE0E0FFE3099585
:1009F00011E0A0E0B1E0ECE5FCE402C005900D924E
:100A0000A433B107D9F711E0A4E3B1E001C01D920E
:100A1000A93FB107E1F70E94B20C0C942C260C946C
:100A20000000662339F0643681F40E948B160E9420
:100A3000E31A0BC0FC018281882321F085EE0E941D
:100A40000A1303C085EE0E94D21380E090E008955F
:100A500008956091BB017091BC018091BD0190919E
:100A6000BE010E943D1D56985E9825982D982698A7
:100A70002E9827982F9890E0FC013197E730F105E8
:100A8000A8F4EA5AFF4F0C94DC25259A2D9A089574
:100A9000259A2D9A09C0259A2D9A269A2E9A08955C
:100AA000259A2D9A269A2E9A279A2F9A08950C9471
:100AB000290556985E9825982D9826982E9827985F
:100AC0002F988FEF90E09093890080938800909307
:100AD0008B0080938A0090938D0080938C00259AE0
:100AE0002D9A2FEF80E792E0215080409040E1F76F
:100AF00000C00000269A2E9A2FEF80E792E0215046
:100B000080409040E1F700C00000279A2F9A2FEF15
:100B100080E792E0215080409040E1F700C0000063
:100B200025982D982FEF80E792E02150804090404B
:100B3000E1F700C0000026982E982FEF80E792E0A2
:100B4000215080409040E1F700C0000027982F9886
:100B500056985E9825982D9826982E9827982F9825
:100B6000089589EA8093800089E080938100249829
:100B70002C983F988AB18F748AB96E98479A8BB136
:100B8000806B8BB9769A0E9459050C94280580E2F7
:100B9000809300018091340181110EC00E941606DD
:100BA00081E0809334012FEF83ED90E3215080406A
:100BB0009040E1F700C0000080E40E941C06809392
:100BC000000181112EC00E94460680930001811110
:100BD00028C00E94460680930001811122C08FE345
:100BE0000E9446068093000181111BC00E943E06B0
:100BF00080E40E941C0680930001811112C08CE0E9
:100C00000E9446068093000181110BC00E94460697
:100C100080930001811105C08FE30E9446068093F6
:100C200000010E943E068091000108951092B900D3
:100C30008AE08093B800089594EA9093BC00909164
:100C4000BC0097FFFCCF9091B900987F983021F0BD
:100C5000903111F081E008958093BB0084E8809387
:100C6000BC008091BC0087FFFCCF8091B900887FD9
:100C7000883111F0803471F780E0089584E9809321
:100C8000BC008091BC0084FDFCCF08958093BB0024
:100C900084E88093BC008091BC0087FFFCCF9091DA
:100CA000B900987F81E0983209F480E0089584E8E3
:100CB0008093BC008091BC0087FFFCCF8091BB007B
:100CC000089580910001811115C080E40E941C06E6
:100CD0008093000181110CC082E10E94460680933E
:100CE0000001811105C08FEF0E944606809300012C
:100CF0000E943E0684B1807F84B985B1807F85B92A
:100D00008AB1837F8AB98BB1837F8BB93E9846982D
:100D100008950E94C705809300010E94610680B378
:100D20008C7080BB81B3836F81BBE4E4F1E0A6E308
:100D3000B1E011921D9281E0E235F807D1F70C94F1
:100D4000B105BF92CF92DF92EF92FF920F931F9364
:100D5000CF93DF9380910001882379F08091350152
:100D60008F5F80933501811108C00E94C705809371
:100D70000001811102C00E94590506E311E0C0E0A4
:100D8000D0E0DD24D39482E0C82EEE24E394F12C4D
:100D9000C73000F580910001811162C080E40E949B
:100DA0001C0680930001811112C082E10E94460658
:100DB0008093000181110BC0C7010C2E01C0880F68
:100DC0000A94EAF780950E944606809300010E94EB
:100DD0003E0646C0CA30A1F028F4C83059F0C930E8
:100DE00061F005C0CC3089F070F0CD3089F0209AE8
:100DF000289810C0219A29980DC0229A2A980AC0D2
:100E0000239A2B9807C0529A01C0539A5B9802C04C
:100E10003E9A4698E0EAEA95F1F78FB179995AC07F
:100E200092E081708D25892B7C9B02C090E001C0EF
:100E300094E0892B7D9B02C090E001C098E0892B53
:100E40007E9B02C090E001C090E1892B9FB19095FC
:100E5000991F9927991F9295990F907E892B0FC002
:100E60008091000181114BC080E40E941C06809398
:100E70000001882389F1B12C0E943E068B2DF801D8
:100E80009081981719F08083C09201010E94610639
:100E900021960F5F1F4FCE30D10509F079CF809199
:100EA0000101882371F1815080930101882339F079
:100EB0008FE99FE00197F1F700C0000022C0A4E491
:100EC000B1E0E6E3F1E081918D9391E0E434F9073C
:100ED000D1F717C090E0A5CF83E10E94460680932A
:100EE00000018111C8CF81E40E941C06809300019B
:100EF0008111C1CF0E945706B82EB094BDCF80E0BB
:100F0000BECF0E94570581E0DF91CF911F910F91D5
:100F1000FF90EF90DF90CF90BF900895E82FF0E022
:100F2000EC5BFE4F8081089508951F93CF93DF936C
:100F3000C4E4D1E010E0899190E00E94311D180FC7
:100F400081E0C235D807B9F7812FDF91CF911F918A
:100F5000089581E0089508950F931F93CF93DF9331
:100F6000EC0108811981C8010E94B81BB8010E94D8
:100F700003088C018A818823C1F180915B01811172
:100F80001DC00431104589F50E94AB0781E08093B4
:100F90005B010E94D81D90935A01809359011092D1
:100FA0005201109254011092530110925601109266
:100FB000550110925801109257011EC0809159019D
:100FC00090915A010E94E41D883C910570F4809133
:100FD0005201E82FF0E0EE0FFF1FED5AFE4F118394
:100FE00000838F5F8093520107C0CE01DF91CF91C4
:100FF0001F910F910C94A90780E0DF91CF911F9171
:101000000F910895089596E0799FF001112494E5D9
:10101000899FE00DF11D1124E60FF11DEE0FFF1F5A
:10102000E85EFE4F859194910895880F991F885628
:101030009040FC01859194910895880F991F885ED6
:101040009E4FFC018591949108950F931F93CF9328
:10105000DF93EC01811520E3920740F5811530E222
:10106000930708F0C4C08B3B910588F4883A91053A
:1010700008F06BC0853A910508F05CC0843091059A
:1010800008F056C08130910509F4C8C1C4C18F3F32
:10109000910511F008F04CC0803F910508F0A4C004
:1010A000805E9109089708F443C0B5C1C13080E55E
:1010B000D80709F4A4C020F5C0312FE4D20770F49A
:1010C000C11530E4D30708F096C0C11581E3D807F5
:1010D00008F0A1C18E011127106CE1C1C115D045E6
:1010E00009F099C10E948B163FEF84E39CE03150D8
:1010F00080409040E1F700C000000E94321ECFC146
:10110000C11527E5D20758F4C03131E5D30708F0FF
:101110001EC1C43180E5D80708F477C07CC1CE0178
:1011200090578115904108F076C18E011F7071C1F2
:101130008E01B5C1853A910509F473C1863A9105CE
:1011400009F472C103E810E4AAC1883A910509F4D0
:101150006EC1893A910509F46DC18A3A910509F485
:101160006CC18B3A910509F46BC18C3A910509F475
:101170006AC18D3A910509F469C1803B910509F472
:1011800068C18E3A910509F467C18F3A910509F457
:1011900066C1813B910509F465C1823B910509F463
:1011A00064C1833B910509F463C1843B910509F453
:1011B00062C1853B910509F461C1863B910509F443
:1011C00060C1873B910509F45FC1883B910509F433
:1011D0005EC1893B910509F45DC18A3B910509F027
:1011E0005CC10AE216E45BC18C01106558C19F70B6
:1011F0000E941D0855C18E011F70106A50C1809158
:10120000D80181608093D8014AC10E94D81F811102
:1012100002C00E94BE1F0E94F51F90E09093F9014A
:101220008093F801C23020E5D20721F48091F801C3
:10123000816086C0C43030E5D30721F48091F80185
:1012400082607EC0C63080E5D80721F48091F80125
:10125000846076C0C83090E5D90719F48091F80110
:1012600027C0CA3020E5D20721F48091F8018061BF
:1012700067C0CC3030E5D30721F48091F80180625B
:101280005FC0CE3080E5D80721F48091F8018064FA
:1012900057C0C03190E5D90721F48091F8018068EA
:1012A0004FC0C23120E5D20729F48091F801846053
:1012B000886046C0C33030E5D30721F48091F8013F
:1012C0008E7F3EC0C53080E5D80721F48091F801BB
:1012D0008D7F36C0C73090E5D90721F48091F801A1
:1012E0008B7F2EC0C93020E5D20719F48091F80118
:1012F00026C0CB3030E5D30721F48091F8018F7EF2
:101300001FC0CD3080E5D80721F48091F8018F7D92
:1013100017C0CF3090E5D90721F48091F8018F7B79
:101320000FC0C13120E5D20721F48091F8018F77F9
:1013300007C0C331D04531F48091F8018B7F877F9E
:101340008093F8018091F8010E94F91FA8C08D2FA9
:1013500099278F70992781309105E9F48E010370E8
:1013600011279C0102C0220F331F0A95E2F7890161
:101370001C68CE01E4E0880F991FEA95E1F7882701
:101380009370082B192BF3E0CC0FDD1FFA95E1F7D2
:10139000C076DD272CC08230910529F41C2F002750
:1013A000016F106A7CC08330910561F4CE018370B7
:1013B000992701E010E002C0000F111F8A95E2F7A3
:1013C0001C680EC084309105A9F4CE018370992762
:1013D00001E010E002C0000F111F8A95E2F71A68C1
:1013E00063E0CC0FDD1F6A95E1F7C07ED7700C2B50
:1013F0001D2B55C08530910529F41C2F0027046F43
:10140000106A4DC0069709F04AC0CF71DD271C2F26
:101410000027106244C000E010E041C001E010E08D
:101420003EC001E810E43BC002E810E438C002EE20
:1014300014E435C009EE14E432C00AEE14E42FC0FF
:1014400005EB14E42CC006EB14E429C007EB14E40C
:1014500026C00CEC14E423C00DEC14E420C003E817
:1014600015E41DC00AE815E41AC002E915E417C026
:1014700004E915E414C001E216E411C003E216E425
:101480000EC004E216E40BC005E216E408C006E252
:1014900016E405C007E216E402C000E014E4C80147
:1014A000DF91CF911F910F91089596E0799FF00100
:1014B000112494E5899FE00DF11D1124E60FF11D23
:1014C000EE0FFF1FE85EFE4F85919491803E9105DF
:1014D000E0F4803C910558F58133910509F46FC023
:1014E00048F48932910509F463C08A32910509F400
:1014F0006DC072C089339105E9F082389105D1F051
:101500008533910509F44DC067C0833E910581F193
:1015100038F4803E9105B9F0823E9105D9F05CC067
:10152000863E910561F1873E9105A1F155C00E946B
:10153000150808952091F80120FD02C021FF4CC03C
:1015400080EE90E049C08091F80180FFF9CF89E3F7
:1015500090E042C08091F80182FF0EC08091F801B6
:1015600084FF03C080E090E037C083EE90E034C099
:101570008091F80182FFF2CF82EE90E02DC0809141
:10158000F80183FF0BC08091F80184FDEBCF87EE5B
:1015900090E022C08091F80183FFF5CF86EE90E0C5
:1015A0001BC08091F80185FF07C089E290E014C05C
:1015B0008091F80185FFF9CF85E390E00DC080911F
:1015C000F80186FF07C08AE290E006C08091F8012A
:1015D00086FFF9CF81E390E00E94250808950895E1
:1015E0000C94EF0A80916C010895CF93DF9300D0A3
:1015F0001F92CDB7DEB72091EF01243019F523E01B
:1016000029839B838A832093E9008FEF9091E800E0
:10161000815095FD06C095ED9A95F1F70000811176
:10162000F5CF8091E80085FF0DC040E050E063E019
:1016300070E0CE0101960E945F0D8091E8008E77E8
:101640008093E8000F900F900F90DF91CF91089555
:10165000CF93DF9300D01F92CDB7DEB72091EF017B
:10166000243021F522E029839B838A8383E08093C1
:10167000E9008FEF9091E800815095FD06C095ED4F
:101680009A95F1F700008111F5CF8091E80085FF70
:101690000DC040E050E063E070E0CE0101960E9492
:1016A0005F0D8091E8008E778093E8000F900F9097
:1016B0000F90DF91CF9108952091EF012430F1F444
:1016C00022E02093E9002FEF3091E800215035FD12
:1016D00006C035ED3A95F1F700002111F5CF2091C4
:1016E000E80025FF0BC040E050E065E070E00E949C
:1016F0005F0D8091E8008E778093E8000895CF9386
:10170000DF93EC018091EF01843009F046C09091A5
:101710000C019923D9F090910D019923B9F0809390
:10172000E9008FEF9091E800815095FD06C095E1AA
:101730009A95F1F700008111F5CF8091E80085FFBF
:101740002CC040E050E060E170E017C081E0809381
:10175000E9008FEF9091E800815095FD06C095ED6E
:101760009A95F1F700008111F5CF8091E80085FF8F
:1017700014C040E050E068E070E0CE010E945F0DD0
:101780008091E8008E778093E80080E1FE01ACE56F
:10179000B1E001900D928A95E1F7DF91CF91089524
:1017A0008091EE01811109C00E94F10E0E944E0F3E
:1017B0008091E20084608093E20008951092EE012F
:1017C000089508950C9454240E94C91D0E945A241F
:1017D0000E94EB110C94F00A42E061EC81E00E945F
:1017E0006B0E42E061EC82E00E946B0E42E061EC25
:1017F00083E00E946B0E42E161EC84E00C946B0E7E
:101800008091F101833009F455C030F4813071F0DA
:10181000823009F48EC008958A3009F47AC08B3082
:1018200009F460C0893009F09CC020C08091F001AB
:10183000813A09F096C08091E800877F8093E800A4
:101840008091F4019091F501892B21F060E080E016
:1018500090E003C060E18CE591E070E00E94A80D8B
:101860008091E8008B778093E80008958091F001E3
:10187000813209F076C08091F4019091F5010097D2
:1018800019F0039709F06DC08091E800877F80937D
:10189000E8008091E80082FD05C08091EF01811190
:1018A000F8CF5FC08091F10080936C018091E800D7
:1018B0008B7753C08091F001813A09F052C080913A
:1018C000F4019091F501892B09F04BC08091E8005B
:1018D000877F8093E8008091E80080FFFCCF8091B3
:1018E0000C0136C08091F0018132D9F58091F4016C
:1018F0009091F501892BA9F58091E800877F80936D
:10190000E8000E94A00E8091F20180930C010C94DB
:101910008B168091F001813221F58091E800877F5C
:101920008093E8000E94A00E8091F30180936D01E6
:1019300008958091F001813AA1F48091E800877FB9
:101940008093E8008091E80080FFFCCF80916D01DA
:101950008093F1008091E8008E778093E8000C94EA
:10196000A00E089584B7877F84BF88E10FB6F894EE
:1019700080936000109260000FBE90E080E80FB688
:10198000F89480936100909361000FBE0E943A1218
:101990000E94F10E0E944E0F8091E20084608093BD
:1019A000E20078940E94C9110E943C1282E091E00A
:1019B0000E94E6110E9442248091EF01853069F473
:1019C0000E94901D8091ED018823B1F30E94BB1D00
:1019D000882391F30E94490DEFCF0E944212ECCF71
:1019E000292F332723303105A9F06CF4213031053C
:1019F00009F442C02230310509F043C08DE690E081
:101A00002CED37E042C021323105C9F022323105D8
:101A100019F137C099278130910541F08230910545
:101A200041F0892B71F5E8EDF7E005C0E0ECF7E057
:101A300002C0E8EAF7E0849190E09F0126C064309C
:101A400000F5E62FF0E0EE0FFF1FEE5DFE4F208168
:101A5000318189E090E019C0643098F4E62FF0E01D
:101A6000DF01AA0FBB1FA65EBE4F2D913C91EA5E1F
:101A7000FE4F808190E009C082E190E029E438E0E7
:101A800004C080E090E020E030E0FA013183208360
:101A9000089580E189BD82E189BD09B400FEFDCFD2
:101AA0008091D8008F7D8093D8008091E000826083
:101AB0008093E0008091E00081FDFCCF0895CF92FB
:101AC000DF92EF92FF920F931F93CF93DF937C01EE
:101AD0008B01EA010E94C10E811131C0209731F0C3
:101AE00088819981081B190BE80EF91EC12CD12C95
:101AF0000115110519F18091E80085FD14C0809150
:101B0000E8008E778093E800209741F088819981E2
:101B10008C0D9D1D9983888385E011C00E94C10EA4
:101B2000882331F30CC0F70181917F018093F1008C
:101B300001501109FFEFCF1ADF0ADACF80E0DF9101
:101B4000CF911F910F91FF90EF90DF90CF9008956C
:101B50002091F6013091F7012617370748F06115FB
:101B6000710539F42091E8002E772093E80001C038
:101B7000B901FC0120E061157105B9F18091EF0117
:101B8000882309F440C0853009F43FC08091E80003
:101B900083FD3DC08091E80082FF06C08091E8008F
:101BA00082FF26C080E008958091E80080FFE3CFA7
:101BB0002091F3008091F20090E0922B6115710565
:101BC00051F08830910538F421912093F100615053
:101BD00071090196F3CF21E0089709F020E0809188
:101BE000E8008E778093E800C6CF2111C7CFD6CF0B
:101BF0008091EF01882339F0853039F08091E80039
:101C000083FFCCCF04C082E0089583E0089581E093
:101C100008952091F6013091F7012617370748F013
:101C20006115710539F42091E8002E772093E800C2
:101C300001C0B901FC0120E061157105C1F180917D
:101C4000EF01882309F441C0853009F440C0809138
:101C5000E80083FD3EC08091E80082FF06C08091CD
:101C6000E80082FF27C080E008958091E80080FFAF
:101C7000E3CF2091F3008091F20090E0922B611568
:101C8000710559F08830910540F424912093F100BA
:101C90003196615071090196F2CF21E0089709F061
:101CA00020E08091E8008E778093E800C5CF211175
:101CB000C6CFD5CF8091EF01882339F0853039F038
:101CC0008091E80083FFCBCF04C082E0089583E0D9
:101CD000089581E00895982F973058F59093E90082
:101CE000981739F07091EC002091ED005091F000C0
:101CF00003C0242F762F50E021FF19C03091EB0054
:101D00003E7F3093EB003091ED003D7F3093ED004E
:101D10003091EB0031603093EB007093EC00209336
:101D2000ED005093F0002091EE0027FF07C09F5F69
:101D3000D3CF8F708093E90081E0089580E008950B
:101D40008091F00187FD05C08091E80080FF0EC002
:101D500012C08091E80082FD05C08091EF018111E1
:101D6000F8CF08958091E8008B7708C08091EF014B
:101D70008111EACF08958091E8008E778093E80082
:101D800008958091E4009091E50045E62091EC00F3
:101D900020FF21C02091E80020FD21C02091EF010B
:101DA000222389F0253089F02091EB0025FD0FC01A
:101DB0002091E4003091E5002817390739F34150AC
:101DC00041F0C901E3CF82E0089583E0089581E006
:101DD000089584E008952091E80022FFDFCF80E09D
:101DE00008950E945F0F0E94670FE0EEF0E080818F
:101DF00081608083E8EDF0E080818F77808319BC7B
:101E0000A7EDB0E08C918E7F8C9380818F7E808354
:101E10001092EE0108950F931F93CF93DF930E94CA
:101E20005F0F0E94670FC8EDD0E088818F778883AD
:101E300088818068888388818F7D888319BC10920F
:101E4000EF011092EB011092ED011092EC0100EE07
:101E500010E0F80180818B7F808388818160888396
:101E600042E060E080E00E946B0EE1EEF0E08081F5
:101E70008E7F8083E2EEF0E08081816080838081CC
:101E800088608083F80180818E7F80838881806173
:101E90008883DF91CF911F910F910895E8EDF0E0D5
:101EA00080818F7E8083E7EDF0E080818160808398
:101EB00084E082BF81E08093EE010C940B0FE8ED8B
:101EC000F0E080818E7F80831092E200089510926E
:101ED000DA001092E10008951F920F920FB60F9250
:101EE00011242F933F934F935F936F937F938F931F
:101EF0009F93AF93BF93EF93FF938091E10082FF95
:101F00000BC08091E20082FF07C08091E1008B7FCF
:101F10008093E1000E94C8118091DA0080FF1FC009
:101F20008091D80080FF1BC08091DA008E7F809363
:101F3000DA008091D90080FF0DC080E189BD82E187
:101F400089BD09B400FEFDCF81E08093EF010E94BE
:101F5000D00B05C019BC1092EF010E94DE0B8091DE
:101F6000E10080FF19C08091E20080FF15C08091E0
:101F7000E2008E7F8093E2008091E2008061809396
:101F8000E2008091D80080628093D80019BC85E07F
:101F90008093EF010E94E20B8091E10084FF30C04A
:101FA0008091E20084FF2CC080E189BD82E189BD7F
:101FB00009B400FEFDCF8091D8008F7D8093D800BA
:101FC0008091E1008F7E8093E1008091E2008F7E1E
:101FD0008093E2008091E20081608093E200809132
:101FE000EB01882311F084E007C08091E30087FFB4
:101FF00002C083E001C081E08093EF010E94E40B06
:102000008091E10083FF29C08091E20083FF25C019
:102010008091E100877F8093E10082E08093EF016F
:102020001092EB018091E1008E7F8093E10080911E
:10203000E2008E7F8093E2008091E20080618093D5
:10204000E20042E060E080E00E946B0E8091F000D0
:1020500088608093F0000E94E10BFF91EF91BF91A7
:10206000AF919F918F917F916F915F914F913F9130
:102070002F910F900FBE0F901F9018951F920F92E7
:102080000FB60F9211242F933F934F935F936F934B
:102090007F938F939F93AF93BF93CF93EF93FF93D0
:1020A000C091E900CF708091EC001092E90080911E
:1020B000F000877F8093F00078940E947A1010924D
:1020C000E9008091F00088608093F000C093E900FF
:1020D000FF91EF91CF91BF91AF919F918F917F91A0
:1020E0006F915F914F913F912F910F900FBE0F9085
:1020F0001F9018951F93CF93DF93CDB7DEB7AA97A4
:102100000FB6F894DEBF0FBECDBFE0EFF1E08091D7
:10211000F100819321E0E83FF207C9F70E94000C2B
:102120008091E80083FF1CC12091F0013091F10102
:10213000832F90E08A30910508F012C1FC01E35A28
:10214000FF4F0C94DC25203881F0223809F008C1BB
:102150008091F4018F708093E9008091EB0085FB02
:10216000882780F91092E90006C08091EC019091D7
:10217000ED01911182609091E800977F9093E800C3
:102180008093F1001092F100C5C0822F8D7F09F07D
:10219000E7C0222319F0223061F0E2C08091F20101
:1021A000813009F0DDC0333009F080E08093ED012B
:1021B00028C08091F201811124C02091F4012F7078
:1021C00009F4CEC02093E9008091EB0080FF19C094
:1021D0008091EB00333011F4806211C080618093F4
:1021E000EB0081E090E0022E01C0880F0A94EAF72C
:1021F0008093EA001092EA008091EB00886080935F
:10220000EB001092E9008091E800877F86C02111E1
:10221000A7C01091F2011F778091E3008078812B95
:102220008093E3008091E800877F8093E8000E941C
:10223000A00E8091E80080FFFCCF8091E3008068D1
:102240008093E300112311F083E001C082E08093CA
:10225000EF0186C02058223008F082C08091F20140
:102260009091F3018C3D23E0920779F583E08A8316
:102270008AE289834FB7F894DE01139620E03EE0AE
:1022800051E2E32FF0E050935700E49120FF03C0A8
:10229000E295EF703F5FEF708E2F90E0EA3010F024
:1022A000C79601C0C0968D939D932F5F243149F747
:1022B0004FBF8091E800877F8093E8006AE270E07A
:1022C000CE0101960E94A80D14C0AE014F5F5F4F72
:1022D0006091F4010E94F00C009709F441C0209134
:1022E000E800277F2093E800BC0189819A810E9441
:1022F000090E8091E8008B778093E80031C0203888
:1023000079F58091E800877F8093E8008091EB0168
:102310008093F1008091E8008E778093E8000E941E
:10232000A00E1EC021111CC09091F2019230C0F489
:102330008091E800877F8093E8009093EB010E94F2
:10234000A00E8091EB01811104C08091E30087FF12
:1023500002C084E001C081E08093EF010E94EC0B99
:102360008091E80083FF0AC08091E800877F809316
:10237000E8008091EB0080628093EB00AA960FB694
:10238000F894DEBF0FBECDBFDF91CF911F910895AE
:102390000895CF938091EF018823B1F08091E900F7
:1023A0008F709091EC0090FF02C090E801C090E027
:1023B000C92FC82B1092E9008091E80083FD0E948C
:1023C0007A10CF70C093E900CF9108959093730174
:1023D000809372010895E0917201F091730130973A
:1023E00021F00190F081E02D099480E00895E091C2
:1023F0007201F0917301309721F00280F381E02D9A
:1024000009940895E0917201F0917301309721F0E1
:102410000480F581E02D0994089520917001309198
:1024200071018217930771F090937101809370018D
:10243000E0917201F0917301309721F00680F781ED
:10244000E02D0994089520916E0130916F0182175B
:10245000930771F090936F0180936E01E091720188
:10246000F0917301309721F00084F185E02D0994FB
:10247000089508950C9439120E94CF1D0E94890678
:102480000C94931E9F92AF92BF92CF92DF92EF92E5
:10249000FF920F931F93CF93DF9300D000D000D013
:1024A000CDB7DEB70E94A10683E8E82E81E0F82EC2
:1024B0000DE010E0CC24C394D12C902E802F0E94EC
:1024C0008E07F701B2907F01B826A1F401501109DF
:1024D000A0F78FEF89838A831B820E94D81D8160B9
:1024E000782F9D838C8349815A816B818D810E94D5
:1024F000DC1231C09091D80191FF04C08E830E94FC
:1025000094078E8125E030E0A601022E01C0440F21
:102510000A94EAF7A42E4B21D1F029839A828A21CA
:1025200091E009F490E09B830E94D81D8160782F90
:102530009D838C8349815A816B818D810E94DC123D
:10254000F801EB58FE4F80818A25808304C021501A
:102550003109D0F6BBCF0E947721109174010E94FF
:10256000EB111817B9F00E94EB11809374012696B5
:102570000FB6F894DEBF0FBECDBFDF91CF911F9194
:102580000F91FF90EF90DF90CF90BF90AF909F9012
:102590000C94F00A26960FB6F894DEBF0FBECDBF9E
:1025A000DF91CF911F910F91FF90EF90DF90CF902F
:1025B000BF90AF909F900895CF93DF93CDB7DEB7D4
:1025C0002B970FB6F894DEBF0FBECDBF4F83588751
:1025D00069877A878B87DE01119686E0FD0111926B
:1025E0008A95E9F785E0FE01379601900D928A956C
:1025F000E1F749815A816B817C818D819E810E94A6
:102600005B192B960FB6F894DEBF0FBECDBFDF91DE
:10261000CF910895CF93C82F882309F4C1C0823881
:1026200059F40E94EB1181FDBBC089E30E94381C64
:102630000E94021D89E30CC0833879F40E94EB11DB
:1026400080FDAEC083E50E94381C0E94021D83E518
:102650000E94781CCF910C94021D843859F40E947A
:10266000EB1182FD9DC087E40E94381C0E94021D70
:1026700087E4EECF8CEF8C0F813A48F48C2F0E94C8
:10268000AA2381118DC08C2F0E94381CE3CF80E2D9
:102690008C0F883048F4C77081E001C0880FCA955C
:1026A000EAF70E94B91CD6CF8BE58C0F833078F403
:1026B000C53A29F0C63A31F482E890E005C081E8D5
:1026C00090E002C083E890E0CF910C940D1288E571
:1026D0008C0F833108F064C0C83A39F1C93A41F12E
:1026E000CA3A49F1CB3A51F1CC3A59F1CD3A61F1BC
:1026F000C03B69F1CE3A71F1CF3A79F1C13B81F13A
:10270000C23B89F1C33B91F1C43B99F1C53BA1F1B7
:10271000C63BA9F1C73BB1F1C83BB9F1C93BC1F117
:10272000CA3BC9F58AE292E038C082EE90E035C03B
:1027300089EE90E032C08AEE90E02FC085EB90E009
:102740002CC086EB90E029C087EB90E026C08CEC93
:1027500090E023C08DEC90E020C083E891E01DC0A4
:102760008AE891E01AC082E991E017C084E991E01B
:1027700014C081E292E011C083E292E00EC084E2D4
:1027800092E00BC085E292E008C086E292E005C0CC
:1027900087E292E002C080E090E0CF910C94231297
:1027A000CF910895882309F44BC0823859F40E94D0
:1027B000EB1181FF45C089E30E94381C0E94021D75
:1027C00089E30CC0833871F40E94EB1180FF38C09C
:1027D00083E50E94381C0E94021D83E50E94781C3C
:1027E0000C94021D843859F40E94EB1182FF28C01A
:1027F00087E40E94381C0E94021D87E4EFCF9CEF03
:10280000980F913A58F390E2980F983050F48770EF
:1028100091E001C0990F8A95EAF7892F0E94BF1CA9
:10282000DFCF9BE5980F933020F480E090E00C948C
:102830000D12885A833120F480E090E00C9423122A
:102840000895882321F00E94B91C0C94021D08955C
:10285000882321F00E94BF1C0C94021D08958F92C2
:102860009F92AF92BF92CF92DF92EF92FF920F931F
:102870001F93CF93DF931F92CDB7DEB74C01A62EE7
:10288000472FFC01E580E2948FE0E822F280FF20F0
:1028900021F079830E94D61C498149830E94311C12
:1028A0004981882381F0FF2071F080E28A0D883011
:1028B00050F082E00E941A1C0E94311CBB24B39489
:1028C000B826498101C0B12CE42FE295EF70F0E009
:1028D000E959FF4F0C94DC25842F807F142F1F7043
:1028E000882311F01295107FFF2089F0112309F43D
:1028F0008DC180E28A0D883020F4812F0E94B91C9E
:1029000003C0812F0E94C91C0E94021D7FC18A2D15
:102910000E94D213112309F490C180E28A0D8830FD
:1029200020F4812F0E94BF1C03C0812F0E94CF1C66
:102930000E94021D82C1242F207F842F8F7020329D
:1029400011F08295807FAA2021F0F1E0AF16B9F056
:1029500020C0FF2049F0EE2009F40FC191E0E912F8
:102960000CC10E94E91C69C1EE2021F0E1E0EE16E5
:1029700009F463C189830E94EC1C898104C1FF2092
:1029800029F0F1E0FE1508F458C1F7C0E11055C177
:10299000FAC0FF2021F0EE2009F4EFC037C1EE208D
:1029A00009F4F1C039C1242F26952695237030E013
:1029B0002115310521F02130310561F03EC1FF20A4
:1029C00021F08A2D942F937002C080E090E00E9445
:1029D0000D1233C1FF2021F08A2D942F937002C075
:1029E00080E090E00E94231228C18A2DFF2019F078
:1029F0000E947F2002C00E94E7200E946C211DC11E
:102A0000842F837009F04EC0F11017C12A2D229532
:102A100026952770220F220F8A2D8F70C82ED12C59
:102A2000E12CF12C022E04C0CC0CDD1CEE1CFF1C92
:102A30000A94D2F7A4FE10C06FE070E080E090E04E
:102A400004C0660F771F881F991F2A95D2F76095DB
:102A500070958095909503C060E070E0CB01242FC5
:102A600026952695237030E02230310569F0233019
:102A7000310589F06C297D298E299F292130310566
:102A800071F00E94AF1AD9C06C297D298E299F2927
:102A90000E94C91AD2C00E94AF1AC701B6010E9493
:102AA000951ACBC0FF2019F0842F817001C0869544
:102AB000882309F4C2C02A2D229526952770220F5B
:102AC000220F8A2D8F70C82ED12CE12CF12C022ED2
:102AD00004C0CC0CDD1CEE1CFF1C0A94D2F7A4FE33
:102AE00010C06FE070E080E090E004C0660F771FD8
:102AF000881F991F2A95D2F76095709580959095BB
:102B000003C060E070E0CB01242F2695269523704A
:102B100030E02230310569F02330310589F06C292D
:102B20007D298E299F292130310571F00E94831B58
:102B300084C06C297D298E299F290E949D1B7DC000
:102B40000E94831BC701B6010E94691B76C00A2D33
:102B500010E0F801E05EF109E531F10508F052C03E
:102B6000E958FF4F0C94DC251A2D1F70842F8F71AC
:102B7000FF2031F00E94021B812F0E9421145DC0B2
:102B80000E94231B812F0E94281457C0FF2039F078
:102B9000E11053C0842F8F710E94481B4EC081E00A
:102BA0008E1508F44AC0F6CFFF2039F0842F8F71BC
:102BB0000E94021B42C0FF20C9F3842F8F710E9424
:102BC000231B3BC0FF2029F0842F8F710E94ED1A38
:102BD00034C00E94E31A31C0FF2051F0142F1F713E
:102BE000812F0E94021B63E0812F0E94111C25C0CF
:102BF00081E00E941A1C91E09E15F8F482E00E9488
:102C00001A1C1BC0FF2031F0EE2081F28A2D0E9499
:102C10000A1313C0EE2089F28A2D0E94D2130DC030
:102C20004F706A2DC4010E9411050E94081A05C048
:102C30004F706A2DC4010E940208BB20F1F00E946F
:102C40000D1C80FD1AC0F40112820E94071C0E9414
:102C5000021BC4010E944B160E94071C0F90DF91BB
:102C6000CF911F910F91FF90EF90DF90CF90BF9089
:102C7000AF909F908F900C94231B0F90DF91CF917A
:102C80001F910F91FF90EF90DF90CF90BF90AF908A
:102C90009F908F9008950F931F93CF93DF93EC0134
:102CA000288139818B819C81892B31F03F3F11F044
:102CB00080E003C02F3FE1F781E0811113C0CE0116
:102CC0000E94AC07882371F0688179818A810E9413
:102CD000031C8C010E94B71B0E948A1AB801CE0106
:102CE0000E942F14DF91CF911F910F9108950E94A0
:102CF000D61C0E94E61C0E94AB1C0E94021D0E9472
:102D000018220E946C2180E090E00E940D1280E069
:102D100090E00C9423120E94C61C0C9477160E941B
:102D2000F81B292F22952F7030E02C3031054CF400
:102D30002A3031056CF42250310922303105B0F4CB
:102D400007C02C30310571F02F30310559F00EC01D
:102D5000803F31F018F4803E48F402C0843F31F4E3
:102D600081E0089593FB882780F9089580E0089515
:102D7000CF93DF9300D000D01F92CDB7DEB70F9076
:102D80000F900F900F900F90DF91CF910895CF93F8
:102D9000DF9300D000D000D0CDB7DEB726960FB6B7
:102DA000F894DEBF0FBECDBFDF91CF9108951F9382
:102DB000CF93DF93C091830116E080918401C817FF
:102DC00099F0D0E01C9FF0011D9FF00D1124EB57EE
:102DD000FE4F4081518162817381848195810E947F
:102DE000C7162196C770E9CFDF91CF911F91089543
:102DF0004091B5015091B6016091B7017091B80151
:102E00008091B9019091BA010C94C716CF9380912B
:102E1000BA0182958F7009F05FC08091B701882355
:102E200009F45AC020918301A09184016091B501F9
:102E30007091B6018091B8019091B90131E06F3F76
:102E400009F030E0B32FC6E02A1709F445C0009717
:102E500021F07F3F21F44B2F03C041E001C040E04F
:102E600030E040FD35C0C29FF001C39FF00D11243A
:102E7000EB57FE4F418174132BC04081641328C06F
:102E80004281411125C0438154814817590710F4EC
:102E900041505109481B590B483C5105C8F48091D9
:102EA000BA018F7080618093BA0186E0829FF00141
:102EB000839FF00D1124E657FE4F80818F70806153
:102EC000808385EB91E00E944B16CF910C94D7162E
:102ED0002F5F3F4F2770B8CFCF910895CF92DF92E9
:102EE000EF92FF920F931F93CF93DF93CDB7DEB78F
:102EF00062970FB6F894DEBF0FBECDBF8C0185E0A0
:102F0000F801DE011D9601900D928A95E1F7D80136
:102F10004C9111965C91119712966C9112971396A1
:102F2000ED90FC9014977091B501E091B60120915D
:102F3000B8013091B9012115310531F0EF3F31F47D
:102F400081E07F3F19F403C081E001C080E0B82F29
:102F5000B170CB2E80FD6CC1D090B701DD2009F49B
:102F6000F5C0F091BA01E216F30638F0C701821BF2
:102F7000930B883C910548F09BC0209530952E0D11
:102F80003F1D283C310508F093C08F2F807F09F04A
:102F900052C0E51314C0741312C0D62E61110FC0B5
:102FA000FF70F061F093BA010E94F81685EB91E092
:102FB0000E944B168091BA01F80185836CC1EF28FD
:102FC00031F05F3F31F481E04F3F19F403C081E0FD
:102FD00001C080E080FD03C081E0862701C080E061
:102FE000F82FF170FF2E80FF1CC08091830120918B
:102FF000840136E0821709F428C190E0389FF0017F
:10300000399FF00D1124EB57FE4F7181571306C005
:103010007081471303C07281671303C001968770E4
:10302000E9CFD62E662309F436C18091BA018160BA
:103030008093BA0153C0E51308C0741306C0611130
:1030400004C0D8011596FC93AEC04D875E878D8570
:103050009E856A8B0E948F166A89882329F1D62E55
:10306000662311F12091BA01822F82958F7090E032
:1030700002970CF460C08091B5019091B6019887D9
:103080008F831986FB86EA862C87CE01079651C06E
:10309000E51731F14D875E878D859E856A8B0E948D
:1030A0008F166A8981112EC0C8010E944B16A4C0D8
:1030B0008F2F807F69F77E2DF98AE88A89890E949F
:1030C000B81685EB91E00E944B16E5EBF1E086E047
:1030D000DF011D928A95E9F70E94F816D12CDBC01A
:1030E0007413D8CF6111D6CFD8011596FC93C801BF
:1030F0000E944B16E5EBF1E086E0DF011D928A9518
:10310000E9F7C9C0D62E662379F22091BA01822F41
:1031100082958F7090E0029774F08091B501909144
:10312000B6019A8389831B82FD82EC822E83CE01B5
:1031300001960E944B1686E0F801A5EBB1E00190E4
:103140000D928A95E1F70E9406176FC0E216F3060A
:1031500028F0C701821B930B9C0104C02095309579
:103160002E0D3F1D283C310508F052C0D62E662397
:1031700009F49ACFE5132CC074132AC08091BA01C8
:1031800080FD1DC0982F92959F70C9F0D8011596AB
:103190008C9315979F3039F09F5F9295907F8F7039
:1031A000892B15968C93C8010E944B1686E0F80176
:1031B000A5EBB1E001900D928A95E1F736C086E06B
:1031C000F801A5EBB1E001900D928A95E1F763C09B
:1031D0004D875E878D859E850E948F16882379F0A6
:1031E00086E0F801A5EBB1E001900D928A95E1F738
:1031F0000E9406170E94F816DD24D3944CC08091DB
:10320000BA0181608093BA01C8010E944B1643C085
:103210007E2DF98AE88A89890E94B816E5EBF1E0EB
:1032200086E0DF011D928A95E9F70E94F81633C007
:10323000662309F439CF4D875E878D859E850E9470
:103240008F16882309F430CFCBCF4D875E878D85CD
:103250009E850E94F81B292F22952F7030E0223086
:1032600031052CF49F7041F0811106C00CC0243050
:1032700031052CF49F7049F4805E883020F0C8013D
:103280000E944B16CF2CDC2C06C0D80115969C91C1
:10329000907F91F7F8CF8D2D62960FB6F894DEBF30
:1032A0000FBECDBFDF91CF911F910F91FF90EF9097
:1032B000DF90CF9008951F93CF93DF93CDB7DEB704
:1032C0002C970FB6F894DEBF0FBECDBF4F83588743
:1032D00069877A878B879C87CE0107960E946E1735
:1032E0008823C1F02F8138858A859B85892B31F011
:1032F0003F3F11F080E003C02F3FE1F781E08111F3
:1033000047C04F81588569857A858B859C850E9449
:10331000C7163EC086E0FE013796DE011196019089
:103320000D928A95E1F7FF81E8854A855B85411515
:10333000510531F0EF3F31F481E0FF3F19F403C054
:1033400081E001C080E080FD23C02091840130E055
:10335000C9010196877099276091830170E08617F3
:103360009707F1F1F983EA835D834C8396E0929F9E
:10337000D001939FB00D1124AB57BE4FFE01319683
:1033800001900D929A95E1F7809384010E94D716DF
:1033900016E08091830190918401891779F1189F3B
:1033A000C00111248B579E4F0E946E17882331F164
:1033B000E09183011E9FF0011124EB57FE4F4081E5
:1033C000518162817381848195810E94C7168091A9
:1033D000830190E001968770992780938301D9CF6C
:1033E0000E948B161092840110928301E5EBF1E0AC
:1033F00086E0DF011D928A95E9F7CACF2C960FB6B9
:10340000F894DEBF0FBECDBFDF91CF911F9108951D
:10341000EF92FF920F931F93CF93DF939C0100973E
:1034200009F471C0F12CEE24E394E9012196F9012D
:103430008491843740F4843008F056C0813081F0A4
:10344000823021F160C0853709F449C0C0F19CE7A2
:10345000980F903708F057C08F770E94D21346C05C
:1034600089010E5F1F4FFE01849190E2980F983002
:1034700050F48770FE2D01C0FF0F8A95EAF78F2F59
:103480000E94D91C15C00E940A1314C089010E5F46
:103490001F4FFE01849190E2980F983068F4877076
:1034A000FE2D01C0FF0F8A95EAF78F2F0E94DF1CC7
:1034B0000E94021DE8011AC00E94D213FBCF2E5FAA
:1034C0003F4FFE01C491CC2341F08FE99FE001976B
:1034D000F1F700C00000C150F6CFE90107C0FE01BE
:1034E000F490E901229602C00E940A138F2D8823CE
:1034F00041F0EFE9FFE03197F1F700C000008150A3
:10350000F6CF9E0192CFDF91CF911F910F91FF9047
:10351000EF90089508956093BF017093C001809368
:10352000C1019093C2010C9477160F931F930091E1
:10353000BF011091C0012091C1013091C201062B41
:10354000172B282B392B0093BF011093C001209318
:10355000C1013093C2011F910F910C9477160F9304
:103560001F930091BF011091C0012091C1013091C2
:10357000C20106231723282339230093BF01109388
:10358000C0012093C1013093C2011F910F910C948F
:1035900077160F931F930091BF011091C0012091E6
:1035A000C1013091C2010627172728273927009328
:1035B000BF011093C0012093C1013093C2011F913C
:1035C0000F910C9477161092BB011092BC011092CF
:1035D000BD011092BE010C94771641E050E060E00E
:1035E00070E004C0440F551F661F771F8A95D2F7FD
:1035F0004093BB015093BC016093BD017093BE0129
:103600000C94771641E050E060E070E004C0440F95
:10361000551F661F771F8A95D2F78091BB01909145
:10362000BC01A091BD01B091BE01842B952BA62BAE
:10363000B72B8093BB019093BC01A093BD01B093C5
:10364000BE010C94771641E050E060E070E004C0E9
:10365000440F551F661F771F8A95D2F740955095E6
:10366000609570958091BB019091BC01A091BD01C6
:10367000B091BE0184239523A623B7238093BB0179
:103680009093BC01A093BD01B093BE010C9477163A
:1036900041E050E060E070E004C0440F551F661F39
:1036A000771F8A95D2F78091BB019091BC01A091C0
:1036B000BD01B091BE0184279527A627B727809327
:1036C000BB019093BC01A093BD01B093BE010C94CB
:1036D00077160F931F930091BB011091BC012091AD
:1036E000BD013091BE01062B172B282B392B0093DF
:1036F000BB011093BC012093BD013093BE011F910B
:103700000F910C9477160F931F930091BB011091AA
:10371000BC012091BD013091BE010623172328234F
:1037200039230093BB011093BC012093BD0130935A
:10373000BE011F910F910C9477160F931F93009168
:10374000BB011091BC012091BD013091BE01062743
:103750001727282739270093BB011093BC0120931A
:10376000BD013093BE011F910F910C9477160895FF
:10377000CF92DF92EF92FF920F931F93CF93DF933D
:10378000EC01C090BF01D090C001E090C101F09069
:10379000C2018091BB019091BC01A091BD01B0918B
:1037A000BE01C82AD92AEA2AFB2A0FE110E0B70194
:1037B000A601002E04C076956795579547950A9403
:1037C000D2F740FD05C00150110988F780E007C01D
:1037D000BE01802F0E94550A0197A9F3802FDF9127
:1037E000CF911F910F91FF90EF90DF90CF900895B0
:1037F000CF93DF93EC010E94B81BBE010E94550AD3
:10380000DF91CF910895CB010E94F81B089580911C
:10381000C30185958595859508958091C30187702D
:10382000089598E0899F90011124622B6093C30151
:103830000C94021B4091C301809584238093C301A3
:10384000982F977069F450E0282F332727FD309583
:103850004217530729F08595859585950C94231B70
:1038600008959091C301977081E009F480E0089574
:1038700090910C019923D9F090910D019923B9F001
:10388000982F9695969596959F3088F5E0910E0124
:10389000F0910F01E90FF11D877021E030E001C0C8
:1038A000220F8A95EAF78181822B818308954091C6
:1038B0000E0150910F0120E030E09FEFFA01E20F7E
:1038C000F31F6281681799F09F3F19F4611101C0DD
:1038D000922F2F5F3F4F2E30310581F79F3F39F0F8
:1038E000FA01E90FF11D97FDFA9582830895089575
:1038F00090910C019923E1F090910D019923C1F071
:10390000982F9695969596959F3020F5E0910E010B
:10391000F0910F01E90FF11D877021E030E001C047
:10392000220F8A95EAF72095818128232183089523
:1039300040910E0150910F0120E030E0FA01E20FBA
:10394000F31F9281981301C012822F5F3F4F2E30D8
:103950003105A1F7089581E090E0E0910E01F0912A
:103960000F01E80FF91F1082019680319105A9F728
:1039700008959091D701982B9093D7010895809541
:103980009091D70198239093D70108951092D70171
:1039900008959091D601982B9093D6010895809523
:1039A0009091D60198239093D60108951092D60154
:1039B00008959091D501982B9093D5010895809505
:1039C0009091D50198239093D50108951092D50137
:1039D00008958093C40108951092C4010895409100
:1039E0000E0150910F0120E030E080E0FA01E20F7B
:1039F000F31F918191118F5F2F5F3F4F2F30310562
:103A0000A9F70895E0910E01F0910F018091D7017F
:103A10008083E0910E01F0910F0180819091D60199
:103A2000892B8083E0910E01F0910F0180819091AC
:103A3000D501892B80839091C401992361F0E09195
:103A40000E01F0910F018081892B80830E94EF1C71
:103A500081111092C40180910E0190910F010C947C
:103A6000F71140E0009739F09C0121503109822381
:103A700093234F5FF7CF842F0895CF92DF92EF9279
:103A8000FF920F931F936C01EE24FF24C114D10405
:103A9000E104F10421F46B017C0180E001C080E1CC
:103AA00033272F2D1E2D0D2D011511052105310553
:103AB00019F0885F6801790197018601A4E03695C5
:103AC000279517950795AA95D1F701151105210599
:103AD000310519F08C5F6801790197018601F2E0E8
:103AE0003695279517950795FA95D1F70115110584
:103AF0002105310519F08E5F68017901B701A60132
:103B00007695679557954795452B462B472B09F09A
:103B10008F5F1F910F91FF90EF90DF90CF900895EE
:103B20008091EF01843021F11092D90120E488E1E5
:103B300090E00FB6F894A895809360000FBE209394
:103B4000600080E00E94F00A83B7817F846083BFB9
:103B500083B7816083BF7894889583B78E7F83BF56
:103B600088E10FB6F89480936000109260000FBE59
:103B70000895089508950E94B91D0E94A1060E940B
:103B8000BA1D0E94950791E0811101C090E0892F34
:103B900008950E948B160E94EB110C94F00A82E0AB
:103BA00084BD93E095BD9AEF97BD80936E00089514
:103BB0002FB7F8948091DA019091DB01A091DC019C
:103BC000B091DD012FBF0895CF92DF92EF92FF9267
:103BD0000F931F932FB7F8944091DA015091DB01B6
:103BE0006091DC017091DD012FBF6A017B01EE2441
:103BF000FF248C0120E030E0C016D106E206F30677
:103C000010F441505109481B590BCA011F910F91E3
:103C1000FF90EF90DF90CF9008951F920F920FB614
:103C20000F9211248F939F93AF93BF938091DA01EA
:103C30009091DB01A091DC01B091DD010196A11D05
:103C4000B11D8093DA019093DB01A093DC01B09366
:103C5000DD01BF91AF919F918F910F900FBE0F909B
:103C60001F9018950E94F10EF8942FEF87EA91E6C5
:103C7000215080409040E1F700C0000087E090EBC9
:103C8000DC018093F9019093FA01A093FB01B093BA
:103C9000FC012CE088E190E00FB6F894A8958093A1
:103CA00060000FBE20936000FFCFEF92FF920F9352
:103CB0001F93CF93DF93E82E8DE0F82E8F2D0E9477
:103CC0008E07C5E0D0E0082F10E098010C2E02C04E
:103CD000359527950A94E2F720FF09C06C2F7F2DB8
:103CE00080E00E940308E81202C081E007C021972B
:103CF00060F7FA948FEFF812E1CF80E0DF91CF9177
:103D00001F910F91FF90EF900895CF93C82F8CE2F1
:103D10000E94551E882321F08C2FCF910C94551EA4
:103D200080E0CF910895CF930E94D81F811102C0E7
:103D30000E94BE1FC5E6C15049F00E94A1068FE354
:103D40009CE90197F1F700C00000F5CF89E20E94DD
:103D5000851E811111C18AE20E94851E81110E9477
:103D6000BE1F85E00E94851E81110E94321E0E94A6
:103D7000E31F8093D80187E00E94851E882399F174
:103D80008BE10E94851E882351F09091D80191FB10
:103D9000882780F921E0822780FB91F922C08EE0FC
:103DA0000E94851E882351F09091D80192FB8827AC
:103DB00080F921E0822780FB92F913C080E10E9404
:103DC000851E9091D801882341F093FB882780F9C4
:103DD00021E0822780FB93F904C0892F809580FB26
:103DE00090F99093D8018091D8010E94E71F0E941A
:103DF000F51F8093F80180EE0E94851E882341F014
:103E00008091F801982F909590FB80F98093F801AC
:103E100089E30E94851E882359F09091F80191FB57
:103E2000882780F921E0822780FB91F99093F8019F
:103E300082EE0E94851E882359F09091F80192FB32
:103E4000882780F921E0822780FB92F99093F8017E
:103E500086EE0E94851E882359F09091F80193FB0D
:103E6000882780F921E0822780FB93F99093F8015D
:103E700083EE0E94851E882359F09091F80194FBEF
:103E8000882780F921E0822780FB94F99093F8013C
:103E900085E30E94851E882359F09091F80195FBD7
:103EA000882780F921E0822780FB95F99093F8011B
:103EB00081E30E94851E882359F09091F80196FBBA
:103EC000882780F921E0822780FB96F99093F801FA
:103ED00081E10E94851E882359F09091F80197FB9B
:103EE000882780F921E0822780FB97F99093F801D9
:103EF0008091F8010E94F91F8091F80187FB8827C3
:103F000080F980930D0187E20E94851EC82F8EE103
:103F10000E94851E8111C2608FE10E94851E811161
:103F2000C46080E20E94851E8111C86081E20E9407
:103F3000851E8111C06182E20E94851E8111C062CE
:103F400083E20E94851E8111C06484E20E94851E66
:103F5000882311F0C06802C0CC2329F08C2F0E9466
:103F6000F01F6C2F03C00E94EC1F682F70E080E0F0
:103F700090E0CF910C948B1ACF9108956DEE7EEF67
:103F800080E090E00E94162660E082E090E00E94CF
:103F9000042660E083E090E00E94042660E084E074
:103FA00090E00E94042660E085E090E00C940426F6
:103FB00080E090E00E94FE2521E08D3E9E4F09F0BA
:103FC00020E0822F089582E090E00C94F625682F7F
:103FD00082E090E00C94042683E090E00C94F625B7
:103FE000682F83E090E00C94042684E090E00C9429
:103FF000F625682F84E090E00C9404268091E0017F
:1040000080FF0BC06091130185E0689FB00111240F
:1040100075956795759567952AC081FF09C0609170
:10402000130185E0689FB0011124759567951FC045
:1040300082FF07C06091130185E0689FB0011124E1
:1040400016C04091E1014423C9F060911201461766
:1040500088F72091130185E0289F90011124429F49
:10406000C001439F900D112470E00E94C825603864
:10407000710540F46115710539F002C065E070E02A
:10408000862F08958FE7089581E008958091E001DB
:1040900080FF08C06091110170E075956795759576
:1040A000679521C081FF06C06091110170E0759590
:1040B000679519C082FF04C06091110170E010C0C3
:1040C0008091E1018823C1F0609110018617A0F76B
:1040D00090911101989FC001112470E00E94C825A1
:1040E0006038710528F46115710521F0862F089557
:1040F0008FE7089581E0089561E070E0F4CF803F9C
:1041000021F40E94FE1F819504C0813F29F40E9482
:10411000FE1F8093E4010895823F21F40E94FE1F58
:10412000819504C0833F29F40E94FE1F8093E30120
:104130000895893F19F40E94462005C08A3F31F452
:104140000E94462081958093E50108958B3F21F4DC
:104150000E944620819504C08C3F29F40E9446208D
:104160008093E6010895843F21F48091E20181600B
:1041700017C0853F21F48091E201826011C0863F23
:1041800021F48091E20184600BC0873F21F480918B
:10419000E201886005C0883F31F48091E2018061CE
:1041A0008093E20108958D3F21F48091E0018160C8
:1041B0000BC08E3F21F48091E001826005C08F3FEB
:1041C00029F48091E00184608093E0010895803FAC
:1041D00039F48091E40187FF6CC01092E40169C05A
:1041E000813F29F48091E4011816BCF362C09091DC
:1041F000E301823F29F497FF5CC01092E30159C0AC
:10420000833F19F41916CCF354C0893F41F48091CF
:10421000E50118160CF04DC01092E5014AC08A3F26
:1042200029F48091E50187FF44C0F6CF8B3F39F434
:104230008091E60187FF3DC01092E6013AC08C3FB5
:1042400029F48091E6011816BCF333C0843F21F4B1
:104250008091E2018E7F17C0853F21F48091E201B9
:104260008D7F11C0863F21F48091E2018B7F0BC0CE
:10427000873F21F48091E201877F05C0883F31F4B8
:104280008091E2018F7E8093E20113C08D3F21F483
:104290008091E0018E7F0BC08E3F21F48091E00180
:1042A0008D7F05C08F3F29F48091E0018B7F809343
:1042B000E0018091E30181110EC08091E401811140
:1042C0000AC08091E501811106C08091E60181114B
:1042D00002C01092E101089582EE91E00E94021264
:1042E0000E94D81D9093DF018093DE0108951F93F3
:1042F000CF93DF938091DE019091DF010E94E41D56
:104300004091E101442321F02091140130E006C0E6
:10431000209115015AE0259F9001112482179307DF
:1043200008F482C08091E3011091E401D091E5018D
:10433000C091E601811107C0111105C0D11103C060
:10434000CC2309F471C04F3F19F04F5F4093E10156
:10435000181624F40E94FE1F8093E3018091E3016C
:1043600087FF05C00E94FE1F81958093E30111160F
:1043700024F40E94FE1F8093E4018091E40187FFF2
:1043800005C00E94FE1F81958093E4016091E301C6
:10439000662339F11091E401112319F1772767FDA4
:1043A0007095872F972F0E94D92423E333E343E3AB
:1043B0005FE30E943D250E94A6246093E301612FE4
:1043C000772767FD7095872F972F0E94D92423E3C5
:1043D00033E343E35FE30E943D250E94A6246093FC
:1043E000E4011D1624F40E9446208093E50180918B
:1043F000E50187FF05C00E94462081958093E50175
:104400001C1624F40E9446208093E6018091E60168
:1044100087FF05C00E94462081958093E601DF91C9
:10442000CF911F910C946C21DF91CF911F91089532
:10443000E2EEF1E085E0DF011D928A95E9F7109246
:10444000E1011092E0010895833081F128F4813078
:1044500059F08230D1F00895853009F449C0B8F19F
:10446000863009F456C0089520911501862F90E0FA
:10447000820F911D8F3F910520F4620F609315010B
:1044800008958FEF80931501089520911401862FD0
:1044900090E0820F911D8F3F910520F4620F609391
:1044A000140108958FEF8093140108952091130152
:1044B000862F90E0820F911D8F3F910520F4620FAF
:1044C0006093130108958FEF809313010895209155
:1044D0001201862F90E0820F911D8F3F910520F4ED
:1044E000620F6093120108958FEF80931201089577
:1044F00020911101862F90E0820F911D8F3F910531
:1045000020F4620F6093110108958FEF80931101E1
:10451000089520911001862F90E0820F911D8F3F0A
:10452000910520F4620F6093100108958FEF80933E
:1045300010010895833011F128F4813049F0823060
:1045400091F00895853081F120F18630C1F1089510
:1045500080911501681720F4861B8093150108953A
:1045600010921501089580911401681720F4861B9C
:1045700080931401089510921401089580911301FD
:10458000681720F4861B809313010895109213017D
:10459000089580911201681720F4861B8093120100
:1045A000089510921201089580911101681720F466
:1045B000861B809311010895109211010895809136
:1045C0001001681720F4861B809310010895109243
:1045D000100108958D3109F442C020F58E3009F4A0
:1045E00077C070F4873009F459C018F48630F1F1BF
:1045F00034C0883009F4A8C08B3009F4A5C02DC0A0
:10460000863109F4A1C038F4803109F472C08131D7
:1046100009F479C022C0893109F496C08B3109F4BC
:104620004DC01BC0853309F487C048F4873209F4B4
:1046300083C008F473C0893209F47EC00EC083348D
:1046400038F48A3308F068C0883309F47DC005C0A7
:10465000833409F471C0883499F080E008950E9491
:1046600060240E94EB110E94F00A6EC08091D80174
:10467000817F8E7F8093D80181E08093E801089547
:104680000E948B162FEF83ED90E3215080409040E5
:10469000E1F700C000000E94321E56C09091D80180
:1046A000892F8095817080FB90F919F09660986051
:1046B0001DC0997F977F9093D80146C09091D801F3
:1046C00091FB882780F921E0822780FB91F909C0BE
:1046D0009091D80192FB882780F921E0822780FB06
:1046E00092F99093D801882379F191609093D80141
:1046F00008959091D80193FB882780F921E08227C3
:1047000080FB93F9EECF0E948B1680910D0191E012
:10471000892780930D0118C027EC01C023EE280FD4
:1047200061E070E080E090E004C0660F771F881FB2
:10473000991F2A95D2F704C061E070E080E090E014
:104740000E948B1A0E948B1681E0089580E00895E4
:1047500080E00895CF93C82F8091E801813079F0EF
:1047600018F08230D1F184C0A0910E01B0910F01F8
:104770008C91813169F0823209F07CC009C0A0912E
:104780000E01B0910F018C91813111F0823249F408
:104790008C2F0E94A62381111DC08C2F0E94EA221B
:1047A0001AC08C2F0E94A823811114C0C43179F043
:1047B00048F4CB3079F0C03109F060C082E08093DA
:1047C000E80108C0C93219F0C83321F057C010926F
:1047D000E80154C081E0817053C0C93289F118F5F5
:1047E000C43171F1A8F4C73009F046C08AE0809363
:1047F000150194E19093140193E090931301809339
:10480000120188E08093110188E28093100134C086
:10481000CE51C63088F5EC2FF0E0E65DFE4F80818A
:104820008093E70129C0CE34E9F020F4CB3421F5A0
:104830006AE013C0C13579F0C235F1F461E00DC012
:104840008091E701882319F01092E70115C081E0FB
:104850008093E80115C061E006C08091E7010E94E5
:1048600024220AC06AE08091E7010E949A2204C0D3
:104870001092E80180E004C081E002C080E0ABCF8C
:10488000CF910895E1E8F0E08081886080838081A5
:10489000816080838FB7F89493E09093890090EDC6
:1048A000909388008FBF0895EFE6F0E080818260EA
:1048B00080830895EFE6F0E080818D7F8083089506
:1048C000EFE6F0E0808192E08927808308951F92CF
:1048D0000F920FB60F9211242F933F934F935F9334
:1048E0006F937F938F939F93AF93BF93EF93FF93B8
:1048F0008091E9019091EA0101969093EA018093F9
:10490000E901811103C082E00E94F00AE091EA010E
:10491000E695E695F0E0EA5AF64FE4918091E901D8
:104920008E1303C080E00E94F00AFF91EF91BF91C7
:10493000AF919F918F917F916F915F914F913F9137
:104940002F910F900FBE0F901F90189504D0689470
:10495000B1118DC0089570D088F09F5790F0B92F95
:104960009927B751A0F0D1F0660F771F881F991FC4
:104970001AF0BA95C9F712C0B13081F077D0B1E022
:10498000089574C0672F782F8827B85F39F0B93F32
:10499000CCF3869577956795B395D9F73EF49095C6
:1049A0008095709561957F4F8F4F9F4F0895E89444
:1049B00009C097FB3EF490958095709561957F4F67
:1049C0008F4F9F4F9923A9F0F92F96E9BB27939515
:1049D000F695879577956795B795F111F8CFFAF425
:1049E000BB0F11F460FF1BC06F5F7F4F8F4F9F4F56
:1049F00016C0882311F096E911C0772321F09EE8B4
:104A0000872F762F05C0662371F096E8862F70E019
:104A100060E02AF09A95660F771F881FDAF7880FF3
:104A20009695879597F9089557FD9058440F551F0F
:104A300059F05F3F71F04795880F97FB991F61F020
:104A40009F3F79F087950895121613061406551F97
:104A5000F2CF4695F1DF08C0161617061806991F03
:104A6000F1CF86957105610508940895E894BB27F8
:104A700066277727CB0197F908950BD078C069D0C6
:104A800028F06ED018F0952309F05AC05FC01124A9
:104A9000EECFCADFA0F3959FD1F3950F50E0551FDD
:104AA000629FF001729FBB27F00DB11D639FAA2783
:104AB000F00DB11DAA1F649F6627B00DA11D661FD2
:104AC000829F2227B00DA11D621F739FB00DA11DF3
:104AD000621F839FA00D611D221F749F3327A00DAD
:104AE000611D231F849F600D211D822F762F6A2F49
:104AF00011249F5750408AF0E1F088234AF0EE0FCE
:104B0000FF1FBB1F661F771F881F91505040A9F7DA
:104B10009E3F510570F014C0AACF5F3FECF3983E62
:104B2000DCF3869577956795B795F795E7959F5F41
:104B3000C1F7FE2B880F911D9695879597F90895DB
:104B400097F99F6780E870E060E008959FEF80EC40
:104B5000089500240A9416161706180609060895E3
:104B600000240A9412161306140605060895092E49
:104B70000394000C11F4882352F0BB0F40F4BF2BB8
:104B800011F460FF04C06F5F7F4F8F4F9F4F0895F8
:104B900097FB072E16F4009407D077FD09D00E94EA
:104BA000E22507FC05D03EF4909581959F4F08952E
:104BB000709561957F4F0895EE0FFF1F0590F4915A
:104BC000E02D0994AA1BBB1B51E107C0AA1FBB1F04
:104BD000A617B70710F0A61BB70B881F991F5A9589
:104BE000A9F780959095BC01CD010895F999FECF64
:104BF00092BD81BDF89A992780B50895A8E1B0E0EB
:104C000042E050E00C941E26262FF999FECF92BD6B
:104C100081BDF89A019700B4021639F01FBA20BD81
:104C20000FB6F894FA9AF99A0FBE08950196272FB5
:104C30000E9405260C940426DC01CB01FC01F999A5
:104C4000FECF06C0F2BDE1BDF89A319600B40D92D8
:0C4C500041505040B8F70895F894FFCF91
:104C5C002002F20A7F0B5C0B280BF50A0101C5013F
:104C6C0028080A03140A3F4D36391709CA08940854
:104C7C005B08EE0707082008390801020304050643
:044C8C00070809000C
:00000001FF
